:0400000087EF00F096
:1000080000C016F001C015F09EAC1ED0C4CF01F0A0
:10001800006AC3500024026E000E0120036E02C065
:1000280017F003C018F002C021F003C022F02136F7
:100038002190223621362190223632D8D58ED76AA1
:10004800060ED66EC2909E9CF2A404D0C280C284D2
:0E005800D59EF29416C000F015C001F0110004
:10006600FF0E1D6EFF0E1E6EFF0E1F6EFF0E206E24
:10007600960E196E000E1A6E230E1B6E000E1C6E67
:10008600949A94969488C66A400EC76EC68A1200E1
:1000960023C0C9FFC7B002D00000FCD7C9CF00F00B
:0200A600120046
:1000A800800E030A006E800E2218005C02E12150C7
:1000B800FF0804E2FF0E216E030E226ED0DF82904D
:1000C800060E026E21C000F022C001F0025007E0C7
:1000D80001320032019E01BC018EFF0FF8D700C02B
:1000E80023F0D5DF21C023F0233623902336239035
:0600F800CEDF8280120041
:1000FE000900F5CFE6FF0006FBE10106F9E112006B
:10010E00176A186A928494909496949A420ED56EB9
:10011E00D76A060ED66E510EC26EC00EC16EF28C2E
:10012E009E9C9D8CF294F28AF28EC284FFD7FFD7EA
:020000040030CA
:0D000100220F0EFF0181FF0FC00FE00F4026
:00000001FF
