:100000000EEF00F00000000000EF00F00000000024
:0A0010000000000000000000F3D71C
:10001C00156A010E166E030E176E070E186E0F0E74
:10002C00196E1F0E1A6E3F0E1B6E7F0E1C6EFF0E8E
:10003C001D6E1E6A1F6A070EC16E946A826A150EC7
:10004C001E24E96E000E1F20EA6EEECF82FF1E4AC0
:10005C001F2A800E1F18006E800E005C02E1090E34
:10006C001E5C02E31E6A1F6A020E0B6E040E0C6EFF
:10007C00BA0E0D6E0D2EFED70C2EFCD70B2EFAD70A
:06008C000000DDD7FFD7E4
:020000040030CA
:0D000100220F0EFF0181FF0FC00FE00F4026
:00000001FF
