:100000000EEF00F00000000000EF00F00000000024
:0A0010000000000000000000F3D71C
:10001C00156A166A176A186A070EC16E938493964E
:10002C0081948196000E81B4010E156E166A000E35
:10003C00161802E1010E15180BE1000E181802E15A
:10004C00000E171805E181A602D0819601D0818699
:10005C0015C017F016C018F0020E0B6E040E0C6EC5
:10006C00BA0E0D6E0D2EFED70C2EFCD70B2EFAD71A
:06007C000000D8D7FFD7F9
:020000040030CA
:0D000100220F0EFF0181FF0FC00FE00F4026
:00000001FF
