:04000000A0EF01F07C
:1000080000C018F001C017F00CC016F00DC015F0B4
:100018002AD919C020F01BC021F000C022F0A3D8B3
:10002800800E1C18006E800E005C02E1100E1B5C36
:1000380011E3000E1A1802E1010E191805E1020E6B
:10004800196E000E1A6E04D0010E196E000E1A6E8B
:100058001B6A1C6A1B4A1C2A81CF1DF0000E1E6EEB
:10006800F29018C000F017C001F016C00CF015C0CF
:040078000DF0110076
:10007C000F0E0C6E470E0D6E0D2EFED70C2EFCD7F0
:06008C000000000012005C
:0600920000000000120056
:0A009800210E0D6E0D2EFED7120092
:1000A2000B6A0A6A096A00500402F4CF09F0F3CF1E
:1000B20008F001500502F4CF0BF0F3CF0AF0005024
:1000C2000502F3500926F4500A22E86A0B22015075
:1000D2000402F3500926F4500A22E86A0B2208C0EF
:1000E20000F009C001F00AC002F00BC003F01200D8
:1000F2002FBE02D0839E01D0838E2FBC02D0839C60
:1001020001D0838C2FBA02D0839A01D0838A2FB870
:1001120002D0839801D083881FB002D0838401D09B
:1001220083948386B5DF83962FB602D0839E01D057
:10013200838E2FB402D0839C01D0838C2FB202D045
:10014200839A01D0838A2FB002D0839801D083880A
:100152001FB002D0838401D08394838699DF839673
:0C0162001FA002D08ADF01D096DF12003F
:10016E000FD0800E206E19D0C00E206E16D0940EB9
:10017E00206E13D0D40E206E10D0800E206E0DD0B7
:10018E002050010AEEE02050020AEEE02050030A51
:10019E00EEE02050040AEEE0F0D72104006E20506D
:1001AE00002600C020F01F8000C02FF09BDF1F90A4
:0A01BE0022C02FF097DF1F8012000F
:1001C800959695949598959A959C959E83968394E3
:1001D800839E839C839A83984DDF4CDF4BDF838A11
:1001E8008388838652DF839645DF83864EDF839636
:1001F80041DF83864ADF83963DDF8398838645DF28
:10020800839638DF838641DF8396839A838E83863D
:100218003CDF83962FDF839E8388838636DF839631
:100228008398838632DF839625DF83862EDF839645
:10023800838883862ADF83961DDF8398838625DF5C
:100248008396838E838C838A838883861EDF839636
:0602580011DF1F801200FF
:10025E000900F5CFE6FF0006FBE10106F9E1120009
:10026E00216A100E226E310E236E320E246E330E64
:10027E00256E340E266E350E276E360E286E370E10
:10028E00296E380E2A6E390E2B6E2A0E2C6E300EFB
:10029E002D6E230E2E6E1A0E0C6EF80E0D6E0D2E8A
:1002AE00FED70C2EFCD70000206A040E205C0BE259
:1002BE0022508114016E0150000A01E104D0223651
:1002CE002290202AF2D7010E816EF00E8114016E5B
:1002DE000150F00A08E081CF00F00036009000C017
:1002EE0081FF212AF2D7816A060E0C6E300E0D6E3A
:1002FE000D2EFED70C2EFCD70000F00E8114016ED1
:10030E000150F00AF1E1030E006E000E016E20C0E6
:10031E0004F0000E056EBEDE230E0026000E012236
:10032E0021500024E96E000E0120EA6EEECF00F09F
:02033E001200AB
:10034000010E196E1A6A010E1B6E1C6A3DDF070E44
:10035000C16EF00E936E816AF19E81CF1DF0000E8A
:0C0360001E6EF290F286F28EFFD7FFD7DF
:020000040030CA
:0D000100220F0EFF0181FF0FC00FE00F4026
:00000001FF
