:040000001DEF00F000
:1000080000C015F01650010A02E1166A02D0010E6E
:10001800166E81CF17F0000E186EF29015C000F022
:020028001100C5
:10002A000900F5CFE6FF0006FBE10106F9E112003F
:10003A00166A070EC16E9290938A81CF17F0000E4E
:10004A00186EF290F286F28E16521FE08090060E1B
:10005A000B6E130E0C6EAD0E0D6E0D2EFED70C2E02
:10006A00FCD70B2EFAD7000000008080060E0B6E1C
:10007A00130E0C6EAD0E0D6E0D2EFED70C2EFCD788
:10008A000B2EFAD700000000DFD78090DDD7FFD70C
:020000040030CA
:0D000100220F0EFF0181FF0FC00FE00F4026
:00000001FF
