:0400000053EF00F0CA
:1000080000C015F0000E191802E1000E181804E1DE
:1000180081B002D0186A196A000E191802E1000EA0
:10002800181806E181A004D0010E186E000E196E92
:10003800000E191802E1010E181806E181A004D07B
:10004800010E186E000E196E000E191802E1010E4D
:10005800181808E181B006D0020E186E000E196E4D
:10006800161E171E000E191802E1020E181802E1DA
:10007800186A196A16B002D0819601D08186770E67
:0E008800D76E480ED66EF29415C000F011002F
:100096000900F5CFE6FF0006FBE10106F9E11200D3
:1000A600166A176A186A196A070EC16E92809296C6
:1000B6008096B40ED56EF294F28AF28E770ED76ED3
:0800C600480ED66EFFD7FFD7EC
:020000040030CA
:0D000100220F0EFF0181FF0FC00FE00F4026
:00000001FF
