:0400000030EF05F0E8
:1000080000C019F001C018F00BC017F00CC016F0B2
:100018000DC015F0C3CF3CF0000E3D6EC4CF01F00B
:10002800006A3C5000263D50012200C03CF001C04F
:100038003DF0A9DA24C004F025C005F026C006F07A
:1000480027C007F009D900C028F001C029F002C074
:100058002AF003C02BF0010E516E52D828C03FF091
:1000680029C040F02AC041F02BC042F02C0E436E4C
:10007800000E446EE5DA010E3F6E030E406E2C0E44
:10008800416E000E426E9FDA9E9C19C000F018C0A7
:1000980001F017C00BF016C00CF015C00DF01100E0
:1000A8000F0E0C6E470E0D6E0D2EFED70C2EFCD7C4
:0600B80000000000120030
:0600BE000000000012002A
:0A00C400210E0D6E0D2EFED7120066
:1000CE000B820BAE71EF00F00368026801680068E6
:0800DE000A360232FF0E120087
:1000E6000B840BAE7EEF00F0010E036E026A016A0E
:0A00F600006A0A360232FF0E120003
:080100000AAE029E000E12007F
:1001080051BE02D0839E01D0838E51BC02D0839C05
:1001180001D0838C51BA02D0839A01D0838A51B816
:1001280002D0839801D083883EB002D0838401D066
:1001380083948386C0DF839651B602D0839E01D014
:10014800838E51B402D0839C01D0838C51B202D0EB
:10015800839A01D0838A51B002D0839801D08388D2
:100168003EB002D0838401D083948386A4DF839633
:0C0178003EA002D095DF01D0A1DF1200F4
:0E018400026A016A006A086A036A000E12002D
:100192000A6A0350D8A40A800750D8A40A820A50D7
:1001A200D8B42CEF01F0030AD8B4E5EF00F00AB09E
:1001B200E0EF00F006AE2AEF01F028EF01F002AE08
:1001C20028EF01F02AEF01F00250800B0A6E029E26
:1001D2000650800B069E0A18D8B4F6EF00F00A50BB
:1001E200D8B428EF01F02AEF01F00750035CD8B42D
:1001F20000EF01F0D8A01CEF01F022EF01F0065051
:10020200025CD8B40AEF01F0D8A01CEF01F022EF93
:1002120001F00550015CD8B414EF01F0D8A01CEF36
:1002220001F022EF01F00450005CD8B42CEF01F091
:10023200D8B022EF01F00A52D8B42AEF01F028EF29
:1002420001F00A52D8B428EF01F02AEF01F0D88069
:0E0252001200D8901200D880D884120012003A
:10026000086A096A000E07620364B5EF01F00250E4
:1002700006180A6E075003267E0ED8A046EF01F03E
:10028000035ED8B0B9EF01F04AEF01F0035ED8A0E9
:10029000BDEF01F0028E068E02C00EF001C00BF021
:1002A00000C00DF000500402F4CF0CF00150050224
:1002B000F4CF00F0F3CF08F00402F3500C26F45012
:1002C0000822000E00220D500502F3500C26F450B7
:1002D0000822000E002202500402F3500826F450B7
:1002E000002202500502016A000E0122F35000268E
:1002F000F45001220D500602F3500826F45000225B
:10030000026A000E012202220B500602F350002660
:10031000F4500122000E02220E500602F350012674
:10032000F450022202BE9DEF01F00836003601367D
:1003300002360306D8B4BDEF01F0B0EF01F0D8806B
:10034000800E08640030000E002201220222D8A094
:10035000B0EF01F0023201320032034AB9EF01F08E
:100360000AAE029E000EBFEF01F0010E0BDFBFEFE1
:1003700001F0020EACDEBFEF01F0040EB4DE12009D
:0C0380003E904DC051F0C0DE3E801200E7
:10038C000D6A086A0050D8B4000C04180A6E0ABE34
:10039C000D1E0B6A04AE02D0041E042A00AE02D05D
:1003AC00001E002A005004100A6E0ABE1FD0045012
:1003BC00085E003600340836045008260036060E57
:1003CC000C6E00340836045000B0085E00A00826FD
:1003DC0000360C2EF6D700A008260BB015D00DAEAB
:1003EC00000C001E002A081E082A000C04AE09D0BE
:1003FC0000BE04D00050086E006AF1D7006A002AD3
:10040C00000C001E0B2AD3D7082A0450085CD8A471
:0E041C00E6D7086A002A00AEE2D7FF0C1200F5
:10042A000C6A0E6A0250D8A42EEF02F001C002F044
:10043A0000C001F0006A0E860250D8A42EEF02F026
:10044A0001C002F0016A0E960E880250D8B440EF3D
:10045A0002F00E50035ED8A4D8A045EF02F0D8905F
:10046A0002BE4AEF02F0003601360236032E35EF9D
:10047A0002F045EF02F0010E0C6E7FDE4DEF02F046
:10048A00020E0C6E2BDE4DEF02F0040E0C6E33DE04
:02049A0012004E
:10049C004DC004F04EC005F004C002F005C003F0DE
:1004AC00044A052A4FC000F050C001F04F4A502AB0
:1004BC0000C0E9FF01C0EAFF02C0E1FF03C0E2FF98
:1004CC00EECFE6FF02C0E9FF03C0EAFFEE5201E007
:0C04DC00E3D74DC000F04EC001F012004C
:1004E800959695949598959A959C959E83968394C0
:1004F800839E839C839A8398D3DDD2DDD1DD838A62
:1005080083888386D8DD8396CBDD8386D4DD839686
:10051800C7DD8386D0DD8396C3DD83988386CBDDF4
:100528008396BEDD8386C7DD8396839A838E838612
:10053800C2DD8396B5DD839E83888386BCDD839682
:1005480083988386B8DD8396ABDD8386B4DD839696
:1005580083888386B0DD8396A3DD83988386ABDDAD
:100568008396838E838C838A83888386A4DD83968F
:0605780097DD3E80120039
:10057E000900F5CFE6FF0006FBE10106F9E11200E6
:10058E0000C008F00150006E016A026A036A0B6A2D
:10059E000C6A016A026A036A960E036E0A6A00AE5C
:1005AE00DFEF02F0081E001E082AD8B4002A0A8EB9
:1005BE0000C001F008C000F0086A026A2FDF1200C6
:1005CE000FD0800E3F6E19D0C00E3F6E16D0940E17
:1005DE003F6E13D0D40E3F6E10D0800E3F6E0DD0F6
:1005EE003F50010AEEE03F50020AEEE03F50030A90
:1005FE00EEE03F50040AEEE0F0D74004006E3F50AC
:10060E00002600C03FF000C051F077DD3E90436AF7
:10061E0043504124E96E000E4220EA6EEE520BE08A
:10062E0043504124E96E000E4220EA6EEECF4DF0AB
:0A063E00A0DE432AEDD73E80120033
:100648004B6A4C6A3FC047F040C048F041C049F08F
:1006580042C04AF04A50FF0A08E14950FF0A05E142
:100668004850FF0A02E14750FF0A0CE143C04DF031
:1006780044C04EF01A0E4F6E000E506E0BDF030E84
:10068800006EE9D1010E456E49AE0ED0800E4918B4
:10069800006E00C049F0452A43C0E1FF44C0E2FFB4
:1006A8002D0EE66E434A442A000E006E4A1808E1F1
:1006B8000050491805E10050481802E14750000A67
:1006C8000BE143C04DF044C04EF0220E4F6E000EB9
:1006D800506EE0DE006ABFD14A50FF0A08E1495077
:1006E800000A05E14850000A02E14750000A0CE1FF
:1006F80043C04DF044C04EF01E0E4F6E000E506EBB
:10070800C9DE45C000F0A7D1000E046E000E056ECC
:10071800000E066E7F0E076E47C000F048C001F05D
:1007280049C002F04AC003F030DD010ED8B0000E17
:10073800006E00521BE047C000F048C001F049C0FD
:1007480002F04AC003F0000E046E000E056E200E83
:10075800066E820E076E80DD00C047F001C048F0CB
:1007680002C049F003C04AF04C06CED7000E046E12
:10077800000E056E200E066E820E076E47C000F052
:1007880048C001F049C002F04AC003F0FEDC000E88
:10079800D8B0010E006E00521BE047C000F048C000
:1007A80001F049C002F04AC003F0CD0E046ECC0E31
:1007B800056E4C0E066E7B0E076E4EDD00C047F0D0
:1007C80001C048F002C049F003C04AF04C2ACED715
:1007D800FF0E4714086EFF0E4814096E7F0E491469
:1007E8000A6E000E4A140B6E08C004F009C005F02A
:1007F8000AC006F00BC007F004360490053606362A
:100808000736000E4714006E000E4814016E000EE5
:100818004914026EFF0E4A14036E00C047F001C06F
:1008280048F002C049F003C04AF004504710006E77
:1008380005504810016E06504910026E07504A10C4
:10084800036E00C047F001C048F002C049F003C081
:100858004AF07F0E4A5C006E00C046F0010E4A6EF8
:1008680000C004F047C000F048C001F049C002F0E1
:100878004AC003F0045007E0003600900136023603
:100888000336FF0FF8D700C047F001C048F002C098
:1008980049F003C04AF043C0E1FF44C0E2FF4A50B8
:1008A800300FE66E434A442A800E4C18006E800EC4
:1008B800010A005C08E3800E060A006E800E4C18E0
:1008C800005C01E30AD043C0E1FF44C0E2FF2E0E02
:1008D800E66E434A442A010E4B6E060E466E46509B
:1008E800000A54E04A6A47C000F048C001F049C015
:1008F80002F04AC003F00036009001360236033693
:10090800003600900136023603364750002648501C
:100918000122495002224A50032200C047F001C078
:1009280048F002C049F003C04AF047C000F048C090
:1009380001F049C002F04AC003F0003600900136C9
:100948000236033600C047F001C048F002C049F043
:1009580003C04AF043C0E1FF44C0E2FF4A50300FF1
:10096800E66E434A442A4B50000A0EE14C064C50AE
:10097800000A0AE143C0E1FF44C0E2FF2E0EE66E22
:10098800434A442A010E4B6E4606A9D7FF0E43245C
:10099800E96EFF0E4420EA6EEE50300A05E1010EC2
:1009A800435E000E445AF2D7FF0E4324E96EFF0E51
:1009B8004420EA6EEE502E0A04E1010E435E000E5A
:1009C800445A4C50000A41E043C0E1FF44C0E2FFF2
:1009D800650EE66E434A442A800E4C18006E800E5F
:1009E800000A005C0BE243C0E1FF44C0E2FF2D0EA9
:1009F800E66E434A442A4C5000084C6E4CC046F000
:100A0800800E090A006E800E4C18005C0EE20A0E79
:100A1800046E46C000F0B6DC43C0E1FF44C0E2FF0C
:100A28000050300FE66E434A442A0A0E046E46C050
:100A380000F0A8DC08C000F043C0E1FF44C0E2FFBA
:100A48000050300FE66E434A442A43C0E1FF44C0D9
:080A5800E2FFE66A006A1200E9
:100A600056EC05F041DD590EC26EC00EC16E928685
:100A70009E9C9D8CF28CF28EC2840B0E0B6E260E09
:100A80000C6E5D0E0D6E0D2EFED70C2EFCD70B2EB0
:0A0A9000FAD700000000F0D7FFD7EE
:100AAC0010EE1AF0120E006E010E016E9A0EF66E1A
:0E0ABC000A0EF76E000EF86EBFEC02F012008C
:040A9A004E614E005B
:040A9E00494E460077
:020AA200300022
:040AA400E5FF1F77D4
:040AA800000000004A
:020000040030CA
:0D000100220F0EFF0181FF0FC00FE00F4026
:00000001FF
