:1000000016EF00F00000000000EF00F0000000001C
:0A0010000000000000000000F3D71C
:10001C000900F5CFE6FF0006FBE10106F9E112004D
:10002C00E20EF66E000EF76E000EF86E150EE16E17
:10003C00000EE26E140E006E010E016EE9DF070E6B
:10004C00C16E946A938681B642D025C000F026C05A
:10005C0001F0003600900136150E0024E96E000EFA
:10006C000120EA6EEECF82FF020E0B6E040E0C6EB8
:10007C00BA0E0D6E0D2EFED70C2EFCD70B2EFAD70A
:10008C00000027502524016E28502620026E01C046
:10009C0025F002C026F0800E0218006E800E005C67
:1000AC0002E1070E015C05E3FF0E276EFF0E286EC2
:1000BC000DD0800E006E800E2618005C02E12550DB
:1000CC00000804E3010E276E000E286E02D0FF0E0E
:0600DC00826EB9D7FFD7C8
:1000E200FE00FD00FB00F700EF00DF00BF007F0015
:0200F20000000C
:0200F400010009
:020000040030CA
:0D000100220F0EFF0181FF0FC00FE00F4026
:00000001FF
