:040000004FEF00F0CE
:1000080000C015F0F2A223D0000E006E1750005C5D
:1000180002E11650000816E3090E166E000E176E60
:10002800000E006E1950005C02E11850000805E34C
:10003800090E186E000E196E04D0010E185E000E1F
:10004800195A04D0010E165E000E175AF292F0A04B
:1000580017D0000E175C02E1090E165C0EE3166A53
:10006800176A000E195C02E1090E185C03E3186AAE
:10007800196A02D0184A192A02D0164A172AF0908B
:0600880015C000F011009C
:10008E000900F5CFE6FF0006FBE10106F9E11200DB
:10009E00166A176A186A196A520EF66E010EF76E14
:1000AE00000EF86E1A0EE16E000EE26E140E006E69
:1000BE00010E016EE5DF070EC16E956A969096925F
:1000CE00848084821AC083FF9380F18CF292F2882E
:1000DE009382F18AF090F086F28E848218C000F03E
:1000EE0019C001F00036009001361A0E0024E96E98
:1000FE00000E0120EA6EEECF83FF8490270E0C6E69
:10010E00F50E0D6E0D2EFED70C2EFCD7848016C06C
:10011E0000F017C001F00036009001361A0E0024D0
:10012E00E96E000E0120EA6EEECF83FF8492270E59
:10013E000C6EF50E0D6E0D2EFED70C2EFCD7848296
:04014E00CCD7FFD734
:100152003F0006005B004F0066006D007D00070057
:040162007F006F00AB
:020000040030CA
:0D000100220F0EFF0181FF0FC00FE00F4026
:00000001FF
