:0400000046EF01F0D6
:1000080000C015F01650000A05E1010E226E010E1F
:10001800166E01D0166A81CF23F0000E246EF2907E
:0600280015C000F01100FC
:0A002E00210E0D6E0D2EFED71200FC
:100038000F0E0C6E470E0D6E0D2EFED70C2EFCD734
:06004800000000001200A0
:06004E000000000012009A
:1000540032BE02D0839E01D0838E32BC02D0839CF8
:1000640001D0838C32BA02D0839A01D0838A32B809
:1000740002D0839801D0838825B002D0838401D034
:1000840083948386E2DF839632B602D0839E01D0C6
:10009400838E32B402D0839C01D0838C32B202D0DE
:1000A400839A01D0838A32B002D0839801D08388A6
:1000B40025B002D0838401D083948386C6DF8396DF
:0C00C40025A002D0B7DF01D0B0DF120091
:1000D000086A080E0C6E003408360450085ED8B06A
:0E00E00002D00826D89000360C2EF5D712005C
:0C00EE00259031C032F0AFDF25801200F9
:1000FA00959695949598959A959C959E83968394B2
:10010A00839E839C839A839892DF91DF90DF838A10
:10011A008388838697DF83968ADF838693DF839635
:10012A0086DF83868FDF839682DF839883868ADFE2
:10013A0083967DDF838686DF8396839A838E838682
:10014A0081DF839674DF839E838883867BDF839631
:10015A008398838677DF83966ADF838673DF839645
:10016A00838883866FDF839662DF839883866ADF5C
:10017A008396838E838C838A8388838663DF8396C0
:06018A0056DF2580120083
:100190000900F5CFE6FF0006FBE10106F9E11200D8
:1001A0002E6A030E2E5C0AE22E502C24E16E000E05
:1001B0002D20E26E200EE66E2E2AF3D72E502C2430
:1001C000E16E000E2D20E26EE66A2E062E502C24E3
:1001D0002F6E000E2D20306E0A0E046E2BC000F024
:1001E00077DF08C000F0300E00262FC0E1FF30C0DE
:1001F000E2FF00C0E6FF0A0E046E2BC000F068DFCD
:1002000000C02BF00050000A01E102D02E06DED71C
:020210001200DA
:100212000FD0800E2B6E19D0C00E2B6E16D0940EFE
:100222002B6E13D0D40E2B6E10D0800E2B6E0DD0F1
:100232002B50010AEEE02B50020AEEE02B50030A8B
:10024200EEE02B50040AEEE0F0D72C04006E2B50A7
:10025200002600C02BF000C032F0FBDE25902F6A92
:100262002F502D24E96E000E2E20EA6EEE520BE086
:100272002F502D24E96E000E2E20EA6EEECF31F0C3
:0A02820035DF2F2AEDD7258012008A
:10028C00166A540E176E750E186E720E196E6E0E6F
:10029C001A6E6F0E1B6E3A0E1C6E200E1D6E200E0B
:1002AC001E6E200E1F6E300E206E216A226A2A6A84
:1002BC00070EC16E1CDF938A81CF23F0000E246ED3
:1002CC00F290F286F28E010E2B6E010E2C6E170E32
:1002DC002D6E000E2E6E97DF2250010A16E12A2A8F
:1002EC00140E2A5CD8B02A6A2AC02BF0260E2C6E6B
:1002FC00000E2D6E4FDF010E2B6E080E2C6E260E8F
:0E030C002D6E000E2E6E7FDF226AE6D7FFD721
:020000040030CA
:0D000100220F0EFF0181FF0FC00FE00F4026
:00000001FF
