:1000000055EF06F00000000000EF00F000000000D7
:0A0010000000000000000000F3D71C
:08001C000AAE029E000E120064
:0E002400026A016A006A086A036A000E12008E
:100032000B820BAE23EF00F00368026801680068D0
:080042000A360232FF0E120023
:10004A000B840BAE30EF00F0010E036E026A016AF8
:0A005A00006A0A360232FF0E12009F
:100064000CB074EF00F00CA21AEF01F00E6A000E4F
:1000740002648BEF00F0F00E0214D8A456EF00F0E7
:10008400023A01380F0B02260138F00B016E0038DA
:100094000F0B01260038F00B006E08380F0B0026FA
:1000A4000838F00B086E0E84D89002BE6FEF00F093
:1000B40008360036013602360E2A02BE6FEF00F013
:1000C40008360036013602360E2A02BE6FEF00F003
:1000D40008360036013602360E2A0E50036410EF3D
:1000E40001F0035E0BBC08AE15EF01F0D880800E62
:1000F40008640030000E002201220222D8A015EF6D
:1001040001F0023201320032034A1AEF01F015EF16
:1001140001F001C002F000C001F008C000F0086A5C
:10012400000E0E860264C2EF00F0F00E0214D8A492
:10013400AAEF00F0023A01380F0B02260138F00B47
:10014400016E00380F0B01260038F00B006E0E8490
:10015400D89002BE6FEF00F00036013602360E2A48
:1001640002BE6FEF00F00036013602360E2A02BEE0
:100174006FEF00F00036013602360E2A6FEF00F002
:1001840001C002F000C001F0006A000E0E960E8855
:100194000264EFEF00F0F00E0214D8A4DAEF00F0DE
:1001A400023A01380F0B02260138F00B016E0E845F
:1001B400D89002BE6FEF00F0013602360E2A02BE5E
:1001C4006FEF00F0013602360E2A02BE6FEF00F028
:1001D400013602360E2A6FEF00F001C002F0016A08
:1001E400000E0E8602641FEF01F0F00E0214D8A474
:1001F400FEEF00F0023A0E84D89002BE6FEF00F0DA
:1002040002360E2A02BE6FEF00F002360E2A02BE3C
:100214006FEF00F002360E2A6FEF00F0010E0C6E45
:1002240012DF22EF01F0020E0C6EF6DE22EF01F077
:10023400040E0C6EFCDE22EF01F0080E0C6EF0DEF4
:020244001200A6
:100246000B800BAE2FEF01F0026A0AAEFF0E026EB4
:0C025600016E006E0A360232FF0E12002C
:10026200025006180E6E086A096A0B6A0350076488
:1002720024EF02F006500A6E068E028E03500B6EB9
:100282000750036E000E0B6474EF01F00B50075E13
:10029200D8B415EF02F0070E0764E3EF01F0075E32
:1002A20000C008F001C000F002C001F0026A074E6F
:1002B20015EF02F00764B8EF01F0075E00C008F026
:1002C20001C000F0016A074E15EF02F0076496EFD5
:1002D20001F0075E00C008F0006A074E15EF02F059
:1002E20007647DEF01F00AC002F005C001F004C00E
:1002F20000F0086A3EEF03F0030E076488EF01F096
:10030200075E08380F0B086E074E15EF02F0D89003
:100312000832074E15EF02F0D8900832074E15EF5B
:1003220002F0D890083215EF02F0030E0764A7EF2F
:1003320001F0075E08380F0B086E0038F00B082634
:1003420000380F0B006E074E15EF02F0D890003206
:100352000832074E15EF02F0D89000320832074EED
:1003620015EF02F0D8900032083215EF02F0030EBA
:100372000764CFEF01F0075E08380F0B086E0038F4
:10038200F00B082600380F0B006E0138F00B002628
:1003920001380F0B016E074E15EF02F0D8900132B3
:1003A20000320832074E15EF02F0D89001320032C7
:1003B2000832074E15EF02F0D890013200320832AF
:1003C20015EF02F0030E076400EF02F0075E083833
:1003D2000F0B086E0038F00B082600380F0B006E6A
:1003E2000138F00B002601380F0B016E0238F00BBA
:1003F200012602380F0B026E074E15EF02F0D8905D
:100402000232013200320832074E15EF02F0D89064
:100412000232013200320832074E15EF02F0D89054
:100422000232013200320832096A000E0EAE09EFC2
:1004320003F0081E001E011E021E082A00220122CD
:10044200022209EF03F00750D8A42AEF02F03EEF90
:1004520003F0096A02C00AF0028E068E0750035C9E
:10046200076ED8B4FCEF02F0070E0764CAEF02F081
:10047200075E0450096E0550046E0650056E066A4A
:10048200074EFCEF02F0070E07649FEF02F0075ED3
:100492000450096E0550046E056A074EFCEF02F027
:1004A200070E07647DEF02F0075E0450096E046ACE
:1004B200074EFCEF02F0070E076464EF02F00AC079
:1004C20002F03EEF03F0030E07646FEF02F0075EE7
:1004D20009380F0B096E074EFCEF02F0D890093273
:1004E200074EFCEF02F0D8900932074EFCEF02F003
:1004F200D8900932FCEF02F0030E07648EEF02F08F
:10050200075E09380F0B096E0438F00B0926043810
:100512000F0B046E074EFCEF02F0D8900432093242
:10052200074EFCEF02F0D89004320932074EFCEF7E
:1005320002F0D89004320932FCEF02F0030E076495
:10054200B6EF02F0075E09380F0B096E0438F00BA4
:10055200092604380F0B046E0538F00B0426053803
:100562000F0B056E074EFCEF02F0D89005320432F5
:100572000932074EFCEF02F0D890053204320932FC
:10058200074EFCEF02F0D890053204320932FCEF3C
:1005920002F0030E0764E7EF02F0075E09380F0B63
:1005A200096E0438F00B092604380F0B046E053867
:1005B200F00B042605380F0B056E0638F00B0526E6
:1005C20006380F0B066E074EFCEF02F0D89006328B
:1005D200053204320932074EFCEF02F0D89006329F
:1005E200053204320932074EFCEF02F0D89006328F
:1005F200053204320932086A000E0EAE09EF03F02A
:10060200091E041E051E061E092A042205220622B0
:1006120009500826045000220550012206500222E9
:100622000EBE20EF03F0D8A02FEF03F0023201320A
:1006320000320832033E2FEF03F039EF03F0D8B057
:1006420034EF03F0000E081E001E011E021E082ACF
:100652000022012202220A7E34EF03F0010E0C6E08
:1006620000DD40EF03F0020E0C6EFBDC40EF03F006
:10067200040E0C6EDDDC40EF03F0000E0C6E120077
:100682000B6A0350D8B487EF03F002500A6E028E51
:100692008E0E035E03AE8BEF03F0036C080E035C59
:1006A200D8A066EF03F0036E013602C001F0026AC1
:1006B200080E035CD8A066EF03F0036E0136016AF0
:1006C2000350D8A4D89070EF03F00350D8B470EF61
:1006D20003F0D89002320132032E6AEF03F00BBC12
:1006E20001A07DEF03F0D8A07DEF03F0012AD8B47A
:1006F200022A02BE9AEF03F00AAE9FEF03F0021E37
:10070200011E012AD8B4022A9FEF03F0026A016A8D
:100712009FEF03F00B800BAEA3EF03F0026A0AAE69
:10072200A3EF03F0FF0E026E016E0A360232A3EF50
:1007320003F0010E0C6E86DDA5EF03F0000E0C6EC9
:10074200A5EF03F0FF0E0C6E0150006E0250016E19
:02075200120093
:100754000A6A0350D8A40A800750D8A40A820A500F
:10076400D8B40DEF04F0030AD8B4C6EF03F00AB00E
:10077400C1EF03F006AE0BEF04F009EF04F002AE94
:1007840009EF04F00BEF04F00250800B0A6E029E96
:100794000650800B069E0A18D8B4D7EF03F00A500F
:1007A400D8B409EF04F00BEF04F00750035CD8B49D
:1007B400E1EF03F0D8A0FDEF03F003EF04F00650DF
:1007C400025CD8B4EBEF03F0D8A0FDEF03F003EF25
:1007D40004F00550015CD8B4F5EF03F0D8A0FDEFA8
:1007E40003F003EF04F00450005CD8B40DEF04F000
:1007F400D8B003EF04F00A52D8B40BEF04F009EFB9
:1008040004F00A52D8B409EF04F00BEF04F0D880D6
:0E0814001200D8901200D880D8841200120072
:080822000B6A0B86FF0E1200A9
:06082A00067E1ADD12003B
:1008300027C0C9FFC7B002D00000FCD7C9CF00F065
:020840001200A4
:10084200046A056A066A076A27C000F028C001F038
:1008520029C002F02AC003F07CDF000ED8B0010EDE
:10086200006E005213E027C000F028C001F029C03A
:1008720002F02AC003F0000E046E000E056E000E98
:10088200066E7E0E076EECDCFBDE12D0000E046EEE
:10089200000E056E000E066E7E0E076E27C000F07B
:1008A20028C001F029C002F02AC003F0BDDFE8DE53
:0208B200120032
:1008B4000450000A12E10550000A0FE10650000A34
:1008C4000CE10750000A09E1FF0E006EFF0E016EF5
:1008D4007F0E026EFF0E036EA7D0086A096A0750E6
:1008E400D8B405EF05F00350D8B409EF05F0025071
:1008F40006180A6E028E068E0E6A02C008F001C047
:100904000CF000C00DF004500D5E0550D8A0053C5D
:100914000C5E0650D8A0063C085E086A0C6A0D6A94
:10092400D8A09CEF04F0D890023201320032083291
:10093400010E0E6E0750035ED8A0A9EF04F07E0EE0
:100944000E240326D8B00EEF05F0AFEF04F07E0EB0
:100954000E240326D8A013EF05F0180E0B6E0D36E7
:100964000C3608360036013602360E360450005E68
:100974000550D8A0053C015E0650D8A0063C025E96
:1009840006340E120EA0CAEF04F00D80D5EF04F069
:10099400045000260550D8B0053C01260650D8B0B6
:1009A400062802260D900B2EB1EF04F0FBEF04F0A5
:1009B400D8900036013602360E360450005E0550DB
:1009C400D8A0053C015E0650D8A0063C025E063461
:1009D4000E10010B0D26D8B00C2AD8B4082AD8A4BE
:1009E400FBEF04F008320C320D32032AD8B40EEFB8
:1009F40005F00AAE089E0850026E0C50016E0D50B0
:100A0400006E16EF05F0010E0ADF16EF05F0020E78
:100A140012EC00F016EF05F0040E19EC00F016EFDE
:0A0A240005F0080E25EC00F01200AA
:100A2E000C6A0E6A0250D8A430EF05F001C002F035
:100A3E0000C001F0006A0E860250D8A430EF05F017
:100A4E0001C002F0016A0E960E880250D8B442EF31
:100A5E0005F00E50035ED8A4D8A048EF05F0D8904C
:100A6E0002BE4EEF05F0003601360236032E37EF8A
:100A7E0005F048EF05F0010E0C6E12EC00F052EF8F
:100A8E0005F0020E0C6E25EC00F052EF05F0040E90
:080A9E000C6E0EEC00F01200DA
:100AA600FF0E196EFF0E1A6EFF0E1B6EFF0E1C6EEA
:100AB600300E156E080E166E270E176E000E186E87
:100AC600949A94969488C66A400EC76EC68A120097
:100AD60023C004F024C005F025C006F026C007F0A8
:100AE6001FC000F020C001F021C002F022C003F0B8
:100AF600DEDE00C027F001C028F002C029F003C0E6
:060B06002AF09CDE120043
:100B0C00086A096A000E076203640BEF06F00250D4
:100B1C0006180A6E075003267E0ED8A09CEF05F02F
:100B2C00035ED8B010EF06F0A0EF05F0035ED8A07E
:100B3C0015EF06F0028E068E02C00EF001C00BF00F
:100B4C0000C00DF000500402F4CF0CF0015005026F
:100B5C00F4CF00F0F3CF08F00402F3500C26F4505D
:100B6C000822000E00220D500502F3500C26F45002
:100B7C000822000E002202500402F3500826F45002
:100B8C00002202500502016A000E0122F3500026D9
:100B9C00F45001220D500602F3500826F4500022A6
:100BAC00026A000E012202220B500602F3500026AC
:100BBC00F4500122000E02220E500602F3500126C0
:100BCC00F450022202BEF3EF05F00836003601366F
:100BDC0002360306D8B415EF06F006EF06F0D880FF
:100BEC00800E08640030000E002201220222D8A0E0
:100BFC0006EF06F0023201320032034A10EF06F023
:100C0C000AAE029E000E18EF06F0010E12EC00F078
:100C1C0018EF06F0020E19EC00F018EF06F0040EB7
:060C2C0025EC00F01200AF
:100C320000C008F00150006E016A026A036A0B6A82
:100C42000C6A016A026A036A960E036E0A6A00AEB1
:100C520031EF06F0081E001E082AD8B4002A0A8EB8
:100C620000C001F008C000F0086A026ADFDE12006C
:100C72008290060E026E1FC000F020C001F00250EA
:100C820007E001320032019E01BC018EFF0FF8D74E
:100C920000C027F0CCDD1FC027F02736279027366B
:080CA2002790C5DD82801200DD
:100CAA001D6A1E6A94909496949AF8DE000E1F6E3E
:100CBA00000E206E200E216E800E226E520E236EC2
:100CCA00270E246E200E256E770E266EFFDE00C0DC
:100CDA001FF001C020F0C8DFB60E0C6ED00E0D6EEC
:100CEA000D2EFED70C2EFCD700001D6A1E6A1D6A47
:100CFA001E6A800E020A006E800E1E18005C02E157
:100D0A001D5000083EE31DC000F01EC001F08CDF3C
:100D1A00000E046E000E056E200E066E800E076E23
:100D2A00F0DE000E046E000E056E000E066E880ED2
:100D3A00076EBBDD000E046E000E056E200E066EF9
:100D4A00800E076E31EC01F000C01FF001C020F0E8
:100D5A0002C021F003C022F0520E236E270E246E29
:100D6A00200E256E770E266EB1DE00C01FF001C080
:100D7A0020F07ADF250E0D6E0D2EFED71D4A1E2A93
:100D8A00B8D71F6A206A216A226A520E236E270E7A
:100D9A00246E200E256E770E266E98DE00C01FF098
:100DAA0001C020F061DF1D6A1E6A1D6A1E6A800E7C
:100DBA00020A006E800E1E18005C02E11D50000837
:100DCA0034E31DC000F01EC001F02EDF000E046ED9
:100DDA00000E056E200E066E800E076E92DE000E65
:100DEA00046E000E056E000E066E880E076E5DDD3F
:100DFA0000C01FF001C020F002C021F003C022F0A1
:100E0A00520E236E270E246E200E256E770E266E46
:100E1A005DDE00C01FF001C020F026DF250E0D6E3A
:0E0E2A000D2EFED71D4A1E2AC2D740D7FFD775
:020000040030CA
:0D000100220F0EFF0181FF0FC00FE00F4026
:00000001FF
