:0400000065EF01F0B7
:1000080000C018F001C017F00CC016F00DC015F0B4
:100018001950000A18E11D2A140E1D5CD8B01D6A7B
:100028001DC022F01E0E236E000E246E11D9010E83
:10003800226E010E236E1E0E246E000E256E78D8D9
:10004800010E196E01D0196A81CF1BF0000E1C6ECB
:10005800F29018C000F017C001F016C00CF015C0DF
:040068000DF0110086
:06006C000000000012007C
:100072000F0E0C6E470E0D6E0D2EFED70C2EFCD7FA
:0600820000000000120066
:0A008800210E0D6E0D2EFED71200A2
:1000920029BE02D0839E01D0838E29BC02D0839CCC
:1000A20001D0838C29BA02D0839A01D0838A29B8DD
:1000B20002D0839801D083881AB002D0838401D001
:1000C20083948386D2DF839629B602D0839E01D0A1
:1000D200838E29B402D0839C01D0838C29B202D0B2
:1000E200839A01D0838A29B002D0839801D0838871
:1000F2001AB002D0838401D083948386B6DF8396BC
:0C0102001AA002D0B5DF01D0BEDF120051
:10010E00086A080E0C6E003408360450085ED8B02B
:0E011E0002D00826D89000360C2EF5D712001D
:0C012C001A9028C029F0AFDF1A801200E2
:100138000FD0800E226E19D0C00E226E16D0940EEB
:10014800226E13D0D40E226E10D0800E226E0DD0E7
:100158002250010AEEE02250020AEEE02250030A81
:10016800EEE02250040AEEE0F0D72304006E22509D
:10017800002600C022F000C029F087DF1A90266A06
:1001880026502424E96E000E2520EA6EEE520BE07C
:1001980026502424E96E000E2520EA6EEECF28F0C2
:0A01A800C1DF262AEDD71A801200ED
:1001B2000900F5CFE6FF0006FBE10106F9E11200B6
:1001C200959695949598959A959C959E83968394E9
:1001D200839E839C839A83984BDF4ADF49DF838A1D
:1001E2008388838642DF839643DF83863EDF83965E
:1001F2003FDF83863ADF83963BDF8398838635DF52
:10020200839636DF838631DF8396839A838E838655
:100212002CDF83962DDF839E8388838626DF839659
:100222008398838622DF839623DF83861EDF83966D
:10023200838883861ADF83961BDF8398838615DF84
:100242008396838E838C838A838883860EDF83964C
:060252000FDF1A8012000C
:10025800256A030E255C0AE225502324E16E000E70
:100268002420E26E200EE66E252AF3D7255023249B
:10027800E16E000E2420E26EE66A2506255023244E
:10028800266E000E2420276E0A0E046E22C000F08F
:100298003ADF08C000F0300E002626C0E1FF27C074
:1002A800E2FF00C0E6FF0A0E046E22C000F02BDF5A
:1002B80000C022F00050000A01E102D02506DED776
:0202C800120022
:1002CA00196A070EC16E78DF938A81CF1BF0000E80
:0C02DA001C6EF290F286F28EFFD7FFD768
:020000040030CA
:0D000100220F0EFF0181FF0FC00FE00F4026
:00000001FF
