:100000000EEF00F00000000000EF00F00000000024
:0A0010000000000000000000F3D71C
:10001C003F0E156E060E166E5B0E176E4F0E186E9B
:10002C00660E196E6D0E1A6E7D0E1B6E070E1C6E13
:10003C007F0E1D6E6F0E1E6E1F6A206A216A226A69
:10004C00070EC16E92909292956A80908090836A0E
:10005C008082150EE96E000EEA6E1F50E926D8B0AC
:10006C00EA2AEECF83FF8090340E0C6EF10E0D6EEB
:10007C000D2EFED70C2EFCD7000000008080150E34
:10008C00E96E000EEA6E2050E926D8B0EA2AEECFCF
:10009C0083FF8092340E0C6EF10E0D6E0D2EFED77A
:1000AC000C2EFCD700000000214A222A000E225CF4
:1000BC0002E1190E215C0CE3216A226A1F2A0A0E46
:1000CC001F5C06E31F6A202A060E205CD8B0206A4B
:0400DC00BFD7FFD7B4
:020000040030CA
:0D000100220F0EFF0181FF0FC00FE00F4026
:00000001FF
