:040000008DEF07F089
:1000080000C018F001C017F00CC016F00DC015F0B4
:100018009EAC64D0C3CF1FF0000E206EC4CF01F099
:10002800006A1F5000262050012200C01FF001C0A6
:1000380020F07DEC05F0520E046E270E056E200EA2
:10004800066E770E076EFAEC06F0000E046E000ED0
:10005800056E480E066E850E076EFAEC06F0000E69
:10006800046E000E056E480E066E840E076E11ECC7
:1000780005F000C01BF001C01CF002C01DF003C059
:100088001EF000C032F001C033F002C034F003C0EB
:1000980035F0190E366E000E376EB0EC06F0010E14
:1000A800436E8CDB19C032F01AC033F0210E346E67
:1000B800000E356E07EC06F0010E326E010E336E3F
:1000C800210E346E000E356E73EC06F0C290C294A9
:1000D8009E9CD58E6D0ED76E840ED66EF2A404D07B
:1000E800C280C284D59EF29418C000F017C001F0F7
:0A00F80016C00CF015C00DF0110049
:100102000B820BAE8BEF00F0036802680168006897
:080112000A360232FF0E120052
:0E011A00026A016A006A086A036A000E120097
:100128000B840BAE9FEF00F0010E036E026A016AAA
:0A013800006A0A360232FF0E1200C0
:080142000AAE029E000E12003D
:10014A000CB0E7EF00F00CA28DEF01F00E6A000E82
:10015A000264FEEF00F0F00E0214D8A4C9EF00F01A
:10016A00023A01380F0B02260138F00B016E0038F3
:10017A000F0B01260038F00B006E08380F0B002613
:10018A000838F00B086E0E84D89002BEE2EF00F039
:10019A0008360036013602360E2A02BEE2EF00F0B9
:1001AA0008360036013602360E2A02BEE2EF00F0A9
:1001BA0008360036013602360E2A0E50036483EFE3
:1001CA0001F0035E0BBC08AE88EF01F0D880800E08
:1001DA0008640030000E002201220222D8A088EF13
:1001EA0001F0023201320032034A8DEF01F088EF4A
:1001FA0001F001C002F000C001F008C000F0086A76
:10020A00000E0E86026435EF01F0F00E0214D8A437
:10021A001DEF01F0023A01380F0B02260138F00BEC
:10022A00016E00380F0B01260038F00B006E0E84A9
:10023A00D89002BEE2EF00F00036013602360E2AEE
:10024A0002BEE2EF00F00036013602360E2A02BE86
:10025A00E2EF00F00036013602360E2AE2EF00F035
:10026A0001C002F000C001F0006A000E0E960E886E
:10027A00026462EF01F0F00E0214D8A44DEF01F00F
:10028A00023A01380F0B02260138F00B016E0E8478
:10029A00D89002BEE2EF00F0013602360E2A02BE04
:1002AA00E2EF00F0013602360E2A02BEE2EF00F05B
:1002BA00013602360E2AE2EF00F001C002F0016AAE
:1002CA00000E0E86026492EF01F0F00E0214D8A41A
:1002DA0071EF01F0023A0E84D89002BEE2EF00F00C
:1002EA0002360E2A02BEE2EF00F002360E2A02BEE3
:1002FA00E2EF00F002360E2AE2EF00F0010E0C6E79
:10030A000EDF95EF01F0020E0C6E16DF95EF01F08D
:10031A00040E0C6EF1DE95EF01F0080E0C6EF8DE9D
:02032A001200BF
:0A032C00210E0D6E0D2EFED71200FB
:100336000F0E0C6E470E0D6E0D2EFED70C2EFCD733
:060346000000000012009F
:06034C0000000000120099
:100352000B800BAEB5EF01F0026A0AAEFF0E026E21
:0C036200016E006E0A360232FF0E12001F
:10036E00025006180E6E086A096A0B6A035007647B
:10037E00AAEF02F006500A6E068E028E03500B6E26
:10038E000750036E000E0B64FAEF01F00B50075E80
:10039E00D8B49BEF02F0070E076469EF02F0075E18
:1003AE0000C008F001C000F002C001F0026A074E62
:1003BE009BEF02F007643EEF02F0075E00C008F00C
:1003CE0001C000F0016A074E9BEF02F007641CEFBC
:1003DE0002F0075E00C008F0006A074E9BEF02F0C5
:1003EE00076403EF02F00AC002F005C001F004C07A
:1003FE0000F0086AC4EF03F0030E07640EEF02F07C
:10040E00075E08380F0B086E074E9BEF02F0D89070
:10041E000832074E9BEF02F0D8900832074E9BEF42
:10042E0002F0D89008329BEF02F0030E07642DEF16
:10043E0002F0075E08380F0B086E0038F00B082626
:10044E0000380F0B006E074E9BEF02F0D890003273
:10045E000832074E9BEF02F0D89000320832074E5A
:10046E009BEF02F0D890003208329BEF02F0030EA1
:10047E00076455EF02F0075E08380F0B086E003860
:10048E00F00B082600380F0B006E0138F00B00261B
:10049E0001380F0B016E074E9BEF02F0D890013220
:1004AE0000320832074E9BEF02F0D8900132003234
:1004BE000832074E9BEF02F0D8900132003208321C
:1004CE009BEF02F0030E076486EF02F0075E08381A
:1004DE000F0B086E0038F00B082600380F0B006E5D
:1004EE000138F00B002601380F0B016E0238F00BAD
:1004FE00012602380F0B026E074E9BEF02F0D890CA
:10050E000232013200320832074E9BEF02F0D890D1
:10051E000232013200320832074E9BEF02F0D890C1
:10052E000232013200320832096A000E0EAE8FEF2F
:10053E0003F0081E001E011E021E082A00220122C0
:10054E0002228FEF03F00750D8A4B0EF02F0C4EFF1
:10055E0003F0096A02C00AF0028E068E0750035C91
:10056E00076ED8B482EF03F0070E076450EF03F066
:10057E00075E0450096E0550046E0650056E066A3D
:10058E00074E82EF03F0070E076425EF03F0075EB8
:10059E000450096E0550046E056A074E82EF03F093
:1005AE00070E076403EF03F0075E0450096E046A3A
:1005BE00074E82EF03F0070E0764EAEF02F00AC05F
:1005CE0002F0C4EF03F0030E0764F5EF02F0075ECE
:1005DE0009380F0B096E074E82EF03F0D8900932DF
:1005EE00074E82EF03F0D8900932074E82EF03F0E8
:1005FE00D890093282EF03F0030E076414EF03F074
:10060E00075E09380F0B096E0438F00B0926043803
:10061E000F0B046E074E82EF03F0D89004320932AE
:10062E00074E82EF03F0D89004320932074E82EF64
:10063E0003F0D8900432093282EF03F0030E076400
:10064E003CEF03F0075E09380F0B096E0438F00B10
:10065E00092604380F0B046E0538F00B04260538F6
:10066E000F0B056E074E82EF03F0D8900532043261
:10067E000932074E82EF03F0D89005320432093268
:10068E00074E82EF03F0D89005320432093282EF22
:10069E0003F0030E07646DEF03F0075E09380F0BCE
:1006AE00096E0438F00B092604380F0B046E05385A
:1006BE00F00B042605380F0B056E0638F00B0526D9
:1006CE0006380F0B066E074E82EF03F0D8900632F7
:1006DE00053204320932074E82EF03F0D89006320B
:1006EE00053204320932074E82EF03F0D8900632FB
:1006FE00053204320932086A000E0EAE8FEF03F097
:10070E00091E041E051E061E092A042205220622A3
:10071E0009500826045000220550012206500222DC
:10072E000EBEA6EF03F0D8A0B5EF03F002320132F1
:10073E0000320832033EB5EF03F0BFEF03F0D8B03E
:10074E00BAEF03F0000E081E001E011E021E082A3C
:10075E000022012202220A7EBAEF03F0010E0C6E75
:10076E00EDDCC6EF03F0020E0C6EE8DCC6EF03F014
:10077E00040E0C6EBFDCC6EF03F0000E0C6E120002
:10078E00086A096A100E0C6E0134083609360450D8
:10079E00085E0550D8A0053C095ED8B007D00450BD
:1007AE0008260550D8B0053C0926D89000360136EB
:0607BE000C2EEAD7120028
:1007C40043BE02D0839E01D0838E43BC02D0839C5F
:1007D40001D0838C43BA02D0839A01D0838A43B870
:1007E40002D0839801D0838831B002D0838401D0B1
:1007F40083948386A9DD839643B602D0839E01D079
:10080400838E43B402D0839C01D0838C43B202D044
:10081400839A01D0838A43B002D0839801D083881D
:1008240031B002D0838401D0839483868DDD839696
:0C08340031A002D07EDD01D077DD120083
:10084000406A050E405C0AE240503E24E16E000E14
:100850003F20E26E200EE66E402AF3D740503E2441
:10086000E16E000E3F20E26EE66A400640503E24F4
:10087000416E000E3F20426E0A0E046E000E056EA1
:100880003CC000F03DC001F082DF08C000F009C0AC
:1008900001F0300E002641C0E1FF42C0E2FF00C07F
:1008A000E6FF0A0E046E000E056E3CC000F03DC06F
:1008B00001F06DDF00C03CF001C03DF0000E0118FA
:1008C00002E1000E001801E102D04006CFD712006D
:1008D0000C6A0E6A0250D8A481EF04F001C002F045
:1008E00000C001F0006A0E860250D8A481EF04F027
:1008F00001C002F0016A0E960E880250D8B493EF40
:1009000004F00E50035ED8A4D8A099EF04F0D8905C
:1009100002BE9FEF04F0003601360236032E88EF48
:1009200004F099EF04F0010E0C6E8DEC00F0A3EFD3
:1009300004F0020E0C6E94EC00F0A3EF04F0040E31
:080940000C6EA1EC00F01200A6
:0C09480031903CC043F03ADF31801200D7
:100954000A6A0350D8A40A800750D8A40A820A500D
:10096400D8B40DEF05F0030AD8B4C6EF04F00AB00A
:10097400C1EF04F006AE0BEF05F009EF05F002AE8F
:1009840009EF05F00BEF05F00250800B0A6E029E92
:100994000650800B069E0A18D8B4D7EF04F00A500C
:1009A400D8B409EF05F00BEF05F00750035CD8B499
:1009B400E1EF04F0D8A0FDEF04F003EF05F00650DA
:1009C400025CD8B4EBEF04F0D8A0FDEF04F003EF21
:1009D40005F00550015CD8B4F5EF04F0D8A0FDEFA4
:1009E40004F003EF05F00450005CD8B40DEF05F0FB
:1009F400D8B003EF05F00A52D8B40BEF05F009EFB5
:100A040005F00A52D8B409EF05F00BEF05F0D880D1
:0E0A14001200D8901200D880D8841200120070
:060A2200067EA4DC1200B8
:100A28000B6A0350D8B45AEF05F002500A6E028ED2
:100A38008E0E035E03AE5EEF05F0036C080E035CDA
:100A4800D8A039EF05F0036E013602C001F0026A42
:100A5800080E035CD8A039EF05F0036E0136016A71
:100A68000350D8A4D89043EF05F00350D8B443EF0F
:100A780005F0D89002320132032E3DEF05F00BBC91
:100A880001A050EF05F0D8A050EF05F0012AD8B426
:100A9800022A02BE6DEF05F00AAE72EF05F0021EE3
:100AA800011E012AD8B4022A72EF05F0026A016A0F
:100AB80072EF05F00B800BAE76EF05F0026A0AAE16
:100AC80076EF05F0FF0E026E016E0A36023276EFFF
:100AD80005F0010E0C6E39DC78EF05F0000E0C6E97
:100AE80078EF05F0FF0E0C6E0150006E0250016E9B
:020AF8001200EA
:100AFA0000C008F00150006E016A026A036A0B6ABC
:100B0A000C6A016A026A036A960E036E0A6A00AEEA
:100B1A0095EF05F0081E001E082AD8B4002A0A8E8E
:100B2A0000C001F008C000F0086A026ACCDE1200B8
:100B3A00959695949598959A959C959E8396839467
:100B4A00839E839C839A83989BEC01F09BEC01F033
:100B5A009BEC01F0838A83888386A6EC01F0839656
:100B6A009BEC01F08386A6EC01F083969BEC01F0E6
:100B7A008386A6EC01F083969BEC01F0839883862A
:100B8A00A6EC01F083969BEC01F08386A6EC01F0BB
:100B9A008396839A838E8386A6EC01F083969BECD8
:100BAA0001F0839E83888386A6EC01F0839683985E
:100BBA008386A6EC01F083969BEC01F08386A6EC73
:100BCA0001F0839683888386A6EC01F083969BECDA
:100BDA0001F083988386A6EC01F08396838E838C3A
:100BEA00838A83888386A6EC01F083969BEC01F0C6
:040BFA003180120034
:100BFE000900F5CFE6FF0006FBE10106F9E1120060
:100C0E00386A396A32C03AF033C03BF0800E33187E
:100C1E00006E800E005C02E1000E325C0BE2010EF3
:100C2E00386E000E396E325000083A6E33C03BF00B
:100C3E00000E3B563AC03CF03BC03DF034C03EF097
:100C4E0035C03FF0F6DD060E366E000E376E000E26
:100C5E00006E3750005C02E13650000819E2365043
:100C6E003424E16E37503520E26E010E365C006E94
:100C7E00000E3758016E00503424E96E01503520B5
:100C8E00EA6EEECFE6FF010E365E000E375ADFD764
:100C9E0034C0E1FF35C0E2FF200EE66E3850391049
:100CAE001AE0366A376A36503424E96E37503520EA
:100CBE00EA6EEE50200A03E1364A372AF4D7010EC7
:100CCE00365E000E375A36503424E16E37503520DA
:080CDE00E26E2D0EE66E12001D
:100CE6000FD0800E326E19D0C00E326E16D0940E12
:100CF600326E13D0D40E326E10D0800E326E0DD0FE
:100D06003250010AEEE03250020AEEE03250030A97
:100D1600EEE03250040AEEE0F0D73304006E3250B3
:100D2600002600C032F000C043F049DD3190366A3B
:100D360036503424E96E000E3520EA6EEE520BE092
:100D460036503424E96E000E3520EA6EEECF3CF0C4
:0A0D5600F8DD362AEDD731801200D7
:100D6000046A056A066A076A32C000F033C001F0FF
:100D700034C002F035C003F0EDDD000ED8B0010E36
:100D8000006E00521CE032C000F033C001F034C0ED
:100D900002F035C003F0000E046E000E056E000E6A
:100DA000066E7E0E076EB7EC01F03EDE36C0E1FF48
:100DB00037C0E2FF00C0E6FF01C0E6FF1AD0000E18
:100DC000046E000E056E000E066E7E0E076E32C0BB
:100DD00000F033C001F034C002F035C003F021DE72
:100DE00023DE36C0E1FF37C0E2FF00C0E6FF01C0EE
:040DF000E6FF120008
:100DF400086A096A000E076203647FEF07F0025075
:100E040006180A6E075003267E0ED8A010EF07F0CE
:100E1400035ED8B084EF07F014EF07F0035ED8A0A8
:100E240089EF07F0028E068E02C00EF001C00BF0AF
:100E340000C00DF000500402F4CF0CF00150050284
:100E4400F4CF00F0F3CF08F00402F3500C26F45072
:100E54000822000E00220D500502F3500C26F45017
:100E64000822000E002202500402F3500826F45017
:100E7400002202500502016A000E0122F3500026EE
:100E8400F45001220D500602F3500826F4500022BB
:100E9400026A000E012202220B500602F3500026C1
:100EA400F4500122000E02220E500602F3500126D5
:100EB400F450022202BE67EF07F00836003601360E
:100EC40002360306D8B489EF07F07AEF07F0D8802A
:100ED400800E08640030000E002201220222D8A0F5
:100EE4007AEF07F0023201320032034A84EF07F04E
:100EF4000AAE029E000E8CEF07F0010E8DEC00F09E
:100F04008CEF07F0020E81EC00F08CEF07F0040E7A
:060F140094EC00F0120055
:100F1A00196A1A6A1B6A1C6A1D6A1E6A1F6A206A93
:100F2A0007DE590EC26EC00EC16E9286850ED56E50
:100F3A00F294F28A9E9C9D8CF28CF28EC284FFD728
:020F4A00FFD7CF
:020000040030CA
:0D000100220F0EFF0181FF0FC00FE00F4026
:00000001FF
