:1000000039EF06F00000000000EF00F000000000F3
:0A0010000000000000000000F3D71C
:10001C000B820BAE18EF00F00368026801680068F1
:08002C000A360232FF0E120039
:0E003400026A016A006A086A036A000E12007E
:100042000B840BAE2CEF00F0010E036E026A016A04
:0A005200006A0A360232FF0E1200A7
:08005C000AAE029E000E120024
:100064000CB074EF00F00CA21AEF01F00E6A000E4F
:1000740002648BEF00F0F00E0214D8A456EF00F0E7
:10008400023A01380F0B02260138F00B016E0038DA
:100094000F0B01260038F00B006E08380F0B0026FA
:1000A4000838F00B086E0E84D89002BE6FEF00F093
:1000B40008360036013602360E2A02BE6FEF00F013
:1000C40008360036013602360E2A02BE6FEF00F003
:1000D40008360036013602360E2A0E50036410EF3D
:1000E40001F0035E0BBC08AE15EF01F0D880800E62
:1000F40008640030000E002201220222D8A015EF6D
:1001040001F0023201320032034A1AEF01F015EF16
:1001140001F001C002F000C001F008C000F0086A5C
:10012400000E0E860264C2EF00F0F00E0214D8A492
:10013400AAEF00F0023A01380F0B02260138F00B47
:10014400016E00380F0B01260038F00B006E0E8490
:10015400D89002BE6FEF00F00036013602360E2A48
:1001640002BE6FEF00F00036013602360E2A02BEE0
:100174006FEF00F00036013602360E2A6FEF00F002
:1001840001C002F000C001F0006A000E0E960E8855
:100194000264EFEF00F0F00E0214D8A4DAEF00F0DE
:1001A400023A01380F0B02260138F00B016E0E845F
:1001B400D89002BE6FEF00F0013602360E2A02BE5E
:1001C4006FEF00F0013602360E2A02BE6FEF00F028
:1001D400013602360E2A6FEF00F001C002F0016A08
:1001E400000E0E8602641FEF01F0F00E0214D8A474
:1001F400FEEF00F0023A0E84D89002BE6FEF00F0DA
:1002040002360E2A02BE6FEF00F002360E2A02BE3C
:100214006FEF00F002360E2A6FEF00F0010E0C6E45
:100224000EDF22EF01F0020E0C6E16DF22EF01F05A
:10023400040E0C6EF1DE22EF01F0080E0C6EF8DEF7
:020244001200A6
:10024600025006180E6E086A096A0B6A03500764A4
:1002560016EF02F006500A6E068E028E03500B6EE3
:100266000750036E000E0B6466EF01F00B50075E3D
:10027600D8B407EF02F0070E0764D5EF01F0075E6A
:1002860000C008F001C000F002C001F0026A074E8B
:1002960007EF02F00764AAEF01F0075E00C008F05E
:1002A60001C000F0016A074E07EF02F0076488EF0D
:1002B60001F0075E00C008F0006A074E07EF02F083
:1002C60007646FEF01F00AC002F005C001F004C038
:1002D60000F0086A30EF03F0030E07647AEF01F0CE
:1002E600075E08380F0B086E074E07EF02F0D8902E
:1002F6000832074E07EF02F0D8900832074E07EF94
:1003060002F0D890083207EF02F0030E076499EF67
:1003160001F0075E08380F0B086E0038F00B082650
:1003260000380F0B006E074E07EF02F0D890003230
:100336000832074E07EF02F0D89000320832074E17
:1003460007EF02F0D8900032083207EF02F0030EF2
:100356000764C1EF01F0075E08380F0B086E00381E
:10036600F00B082600380F0B006E0138F00B002644
:1003760001380F0B016E074E07EF02F0D8900132DD
:1003860000320832074E07EF02F0D89001320032F1
:100396000832074E07EF02F0D890013200320832D9
:1003A60007EF02F0030E0764F2EF01F0075E08386C
:1003B6000F0B086E0038F00B082600380F0B006E86
:1003C6000138F00B002601380F0B016E0238F00BD6
:1003D600012602380F0B026E074E07EF02F0D89087
:1003E6000232013200320832074E07EF02F0D8908F
:1003F6000232013200320832074E07EF02F0D8907F
:100406000232013200320832096A000E0EAEFBEFEC
:1004160002F0081E001E011E021E082A00220122EA
:100426000222FBEF02F00750D8A41CEF02F030EFD7
:1004360003F0096A02C00AF0028E068E0750035CBA
:10044600076ED8B4EEEF02F0070E0764BCEF02F0B9
:10045600075E0450096E0550046E0650056E066A66
:10046600074EEEEF02F0070E076491EF02F0075E0B
:100476000450096E0550046E056A074EEEEF02F051
:10048600070E07646FEF02F0075E0450096E046AF8
:10049600074EEEEF02F0070E076456EF02F00AC0B1
:1004A60002F030EF03F0030E076461EF02F0075E1F
:1004B60009380F0B096E074EEEEF02F0D89009329D
:1004C600074EEEEF02F0D8900932074EEEEF02F03B
:1004D600D8900932EEEF02F0030E076480EF02F0C7
:1004E600075E09380F0B096E0438F00B092604382D
:1004F6000F0B046E074EEEEF02F0D890043209326D
:10050600074EEEEF02F0D89004320932074EEEEFB6
:1005160002F0D89004320932EEEF02F0030E0764BF
:10052600A8EF02F0075E09380F0B096E0438F00BCE
:10053600092604380F0B046E0538F00B042605381F
:100546000F0B056E074EEEEF02F0D890053204321F
:100556000932074EEEEF02F0D89005320432093226
:10056600074EEEEF02F0D890053204320932EEEF74
:1005760002F0030E0764D9EF02F0075E09380F0B8D
:10058600096E0438F00B092604380F0B046E053883
:10059600F00B042605380F0B056E0638F00B052602
:1005A60006380F0B066E074EEEEF02F0D8900632B5
:1005B600053204320932074EEEEF02F0D8900632C9
:1005C600053204320932074EEEEF02F0D8900632B9
:1005D600053204320932086A000E0EAEFBEF02F055
:1005E600091E041E051E061E092A042205220622CD
:1005F6000950082604500022055001220650022206
:100606000EBE12EF03F0D8A021EF03F00232013242
:1006160000320832033E21EF03F02BEF03F0D8B08F
:1006260026EF03F0000E081E001E011E021E082AF9
:100636000022012202220A7E26EF03F0010E0C6E32
:100646000EDD32EF03F0020E0C6E09DD32EF03F021
:10065600040E0C6EE0DC32EF03F0000E0C6E12009E
:100666000B800BAE3FEF03F0026A0AAEFF0E026E7E
:0C067600016E006E0A360232FF0E120008
:080682000B6A0B86FF0E12004B
:06068A00067EDCDD12001B
:100690000A6A0350D8A40A800750D8A40A820A50D4
:1006A000D8B4ABEF03F0030AD8B464EF03F00AB098
:1006B0005FEF03F006AEA9EF03F0A7EF03F002AE81
:1006C000A7EF03F0A9EF03F00250800B0A6E029E21
:1006D0000650800B069E0A18D8B475EF03F00A5036
:1006E000D8B4A7EF03F0A9EF03F00750035CD8B428
:1006F0007FEF03F0D8A09BEF03F0A1EF03F00650CB
:10070000025CD8B489EF03F0D8A09BEF03F0A1EF0F
:1007100003F00550015CD8B493EF03F0D8A09BEF31
:1007200003F0A1EF03F00450005CD8B4ABEF03F08A
:10073000D8B0A1EF03F00A52D8B4A9EF03F0A7EFA5
:1007400003F00A52D8B4A7EF03F0A9EF03F0D88062
:0E0750001200D8901200D880D8841200120037
:10075E000B6A0350D8B4F5EF03F002500A6E028E06
:10076E008E0E035E03AEF9EF03F0036C080E035C0E
:10077E00D8A0D4EF03F0036E013602C001F0026A76
:10078E00080E035CD8A0D4EF03F0036E0136016AA5
:10079E000350D8A4D890DEEF03F00350D8B4DEEFA8
:1007AE0003F0D89002320132032ED8EF03F00BBCC7
:1007BE0001A0EBEF03F0D8A0EBEF03F0012AD8B4C1
:1007CE00022A02BE08EF04F00AAE0DEF04F0021E7C
:1007DE00011E012AD8B4022A0DEF04F0026A016A42
:1007EE000DEF04F00B800BAE11EF04F0026A0AAEAF
:1007FE0011EF04F0FF0E026E016E0A36023211EF97
:10080E0004F0010E0C6E28DF13EF04F0000E0C6ED8
:10081E0013EF04F0FF0E0C6E0150006E0250016ECD
:02082E001200B6
:10083000046A056A066A076A29C000F02AC001F046
:100840002BC002F02CC003F023DF000ED8B0010E45
:10085000006E005213E029C000F02AC001F02BC046
:1008600002F02CC003F0000E046E000E056E000EA8
:10087000066E7E0E076EE7DC72DF12D0000E046E8D
:10088000000E056E000E066E7E0E076E29C000F08B
:100890002AC001F02BC002F02CC003F0F6DE5FDFAF
:0208A000120044
:1008A2000450000A12E10550000A0FE10650000A46
:1008B2000CE10750000A09E1FF0E006EFF0E016E07
:1008C2007F0E026EFF0E036EA7D0086A096A0750F8
:1008D200D8B4FCEF04F00350D8B400EF05F0025096
:1008E20006180A6E028E068E0E6A02C008F001C059
:1008F2000CF000C00DF004500D5E0550D8A0053C70
:100902000C5E0650D8A0063C085E086A0C6A0D6AA6
:10091200D8A093EF04F0D8900232013200320832AC
:10092200010E0E6E0750035ED8A0A0EF04F07E0EFB
:100932000E240326D8B005EF05F0A6EF04F07E0ED4
:100942000E240326D8A00AEF05F0180E0B6E0D3602
:100952000C3608360036013602360E360450005E7A
:100962000550D8A0053C015E0650D8A0063C025EA8
:1009720006340E120EA0C1EF04F00D80CCEF04F08D
:10098200045000260550D8B0053C01260650D8B0C8
:10099200062802260D900B2EA8EF04F0F2EF04F0C9
:1009A200D8900036013602360E360450005E0550ED
:1009B200D8A0053C015E0650D8A0063C025E063473
:1009C2000E10010B0D26D8B00C2AD8B4082AD8A4D0
:1009D200F2EF04F008320C320D32032AD8B405EFDC
:1009E20005F00AAE089E0850026E0C50016E0D50C2
:1009F200006E0DEF05F0010E43DE0DEF05F0020E65
:100A02001AEC00F00DEF05F0040E0EEC00F00DEF05
:0A0A120005F0080E21EC00F01200C0
:100A1C000C6A0E6A0250D8A427EF05F001C002F050
:100A2C0000C001F0006A0E860250D8A427EF05F032
:100A3C0001C002F0016A0E960E880250D8B439EF4C
:100A4C0005F00E50035ED8A4D8A03FEF05F0D89067
:100A5C0002BE45EF05F0003601360236032E2EEFAE
:100A6C0005F03FEF05F0010E0C6E1AEC00F049EFAB
:100A7C0005F0020E0C6E21EC00F049EF05F0040EAF
:080A8C000C6E2EEC00F01200CC
:100A9400FF0E196EFF0E1A6EFF0E1B6EFF0E1C6EFC
:100AA400FA0E156E0A0E166E210E176E000E186ED3
:100AB400949A94969488C66A400EC76EC68A1200A9
:100AC40025C004F026C005F027C006F028C007F0B2
:100AD40021C000F022C001F023C002F024C003F0C2
:100AE400DEDE00C029F001C02AF002C02BF003C0F2
:060AF4002CF09CDE120054
:100AFA0021C0C9FFC7B002D00000FCD7C9CF00F09F
:020B0A001200D7
:100B0C0000C008F00150006E016A026A036A0B6AA9
:100B1C000C6A016A026A036A960E036E0A6A00AED8
:100B2C009EEF05F0081E001E082AD8B4002A0A8E73
:100B3C0000C001F008C000F0086A026A69DF120008
:100B4C00086A096A000E076203642BEF06F0025074
:100B5C0006180A6E075003267E0ED8A0BCEF05F0CF
:100B6C00035ED8B030EF06F0C0EF05F0035ED8A0FE
:100B7C0035EF06F0028E068E02C00EF001C00BF0AF
:100B8C0000C00DF000500402F4CF0CF0015005022F
:100B9C00F4CF00F0F3CF08F00402F3500C26F4501D
:100BAC000822000E00220D500502F3500C26F450C2
:100BBC000822000E002202500402F3500826F450C2
:100BCC00002202500502016A000E0122F350002699
:100BDC00F45001220D500602F3500826F450002266
:100BEC00026A000E012202220B500602F35000266C
:100BFC00F4500122000E02220E500602F350012680
:100C0C00F450022202BE13EF06F00836003601360D
:100C1C0002360306D8B435EF06F026EF06F0D8807E
:100C2C00800E08640030000E002201220222D8A09F
:100C3C0026EF06F0023201320032034A30EF06F0A2
:100C4C000AAE029E000E38EF06F0010E1AEC00F010
:100C5C0038EF06F0020E0EEC00F038EF06F0040E42
:060C6C0021EC00F0120073
:100C72001D6A1E6A1F6A206A94909496949A09DFEC
:100C8200000E216E000E226E200E236E800E246E48
:100C9200520E256E270E266E200E276E770E286EB8
:100CA20010DF00C01DF001C01EF08290060E046E1F
:100CB20000C002F001C003F0045007E00332023228
:100CC200039E03BC038EFF0FF8D702C021F014DF8E
:100CD2001DC021F021362190213621900DDF828026
:100CE200B60E0C6ED00E0D6E0D2EFED70C2EFCD74E
:100CF20000001F6A206A1F6A206A800E020A006EC4
:100D0200800E2018005C02E11F50000858E31FC04B
:100D120000F020C001F0F9DE000E046E000E056E38
:100D2200200E066E800E076E10DF000E046E000E9F
:100D3200056E000E066E880E076EB2DD000E046EA2
:100D4200000E056E200E066E800E076E23EC01F07B
:100D520000C021F001C022F002C023F003C024F041
:100D6200520E256E270E266E200E276E770E286EE7
:100D7200A8DE00C01DF001C01EF08290060E046EB7
:100D820000C002F001C003F0045007E00332023257
:100D9200039E03BC038EFF0FF8D702C021F0ACDE26
:100DA2001DC021F02136219021362190A5DE8280BE
:100DB200250E0D6E0D2EFED71F4A202A9ED7216AC0
:100DC200226A236A246A520E256E270E266E200E90
:100DD200276E770E286E75DE00C01DF001C01EF072
:100DE2008290060E046E00C002F001C003F00450AF
:100DF20007E003320232039E03BC038EFF0FF8D7D3
:100E020002C021F079DE1DC021F021362190213669
:100E1200219072DE82801F6A206A1F6A206A800E19
:100E2200020A006E800E2018005C02E11F500008CA
:100E32004EE31FC000F020C001F067DE000E046E1A
:100E4200000E056E200E066E800E076E7EDE000E10
:100E5200046E000E056E000E066E880E076E20DD13
:100E620000C021F001C022F002C023F003C024F030
:100E7200520E256E270E266E200E276E770E286ED6
:100E820020DE00C01DF001C01EF08290060E046E2E
:100E920000C002F001C003F0045007E00332023246
:100EA200039E03BC038EFF0FF8D702C021F024DE9D
:100EB2001DC021F021362190213621901DDE828035
:100EC200250E0D6E0D2EFED71F4A202AA8D7D8D682
:020ED200FFD748
:020000040030CA
:0D000100220F0EFF0181FF0FC00FE00F4026
:00000001FF
