:04000000F5EF0EF01A
:1000080000C018F001C017F00CC016F00DC015F0B4
:10001800F5CF1CF0F8CF19F0F7CF1AF0F6CF1BF098
:100028009EAC43D0C4CF01F0006AC3500026000E36
:10003800012200C02FF001C030F02CEC08F0520E65
:10004800046E270E056E200E066E770E076E7CEC8A
:1000580004F000C02BF001C02CF002C02DF003C04A
:100068002EF000C042F001C043F002C044F003C0CB
:1000780045F090EC0EF000C021F001C022F002C063
:1000880023F003C024F000C042F001C043F002C0D6
:1000980044F003C045F075EC0EF0D58E0B0ED76E0C
:1000A800DC0ED66EC290C2949E9CF2A404D0C2808C
:1000B800C284D59EF2941CC0F5FF19C0F8FF1AC07F
:1000C800F7FF1BC0F6FF18C000F017C001F016C0FC
:0800D8000CF015C00DF0110041
:1000E0000B820BAE7AEF00F00368026801680068CB
:0800F0000A360232FF0E120075
:0E00F800026A016A006A086A036A000E1200BA
:080106000AAE029E000E120079
:10010E000B840BAE92EF00F0010E036E026A016AD1
:0A011E00006A0A360232FF0E1200DA
:100128000CB0D6EF00F00CA27CEF01F00E6A000EC6
:100138000264EDEF00F0F00E0214D8A4B8EF00F05E
:10014800023A01380F0B02260138F00B016E003815
:100158000F0B01260038F00B006E08380F0B002635
:100168000838F00B086E0E84D89002BED1EF00F06C
:1001780008360036013602360E2A02BED1EF00F0EC
:1001880008360036013602360E2A02BED1EF00F0DC
:1001980008360036013602360E2A0E50036472EF16
:1001A80001F0035E0BBC08AE77EF01F0D880800E3B
:1001B80008640030000E002201220222D8A077EF46
:1001C80001F0023201320032034A7CEF01F077EF8E
:1001D80001F001C002F000C001F008C000F0086A98
:1001E800000E0E86026424EF01F0F00E0214D8A46B
:1001F8000CEF01F0023A01380F0B02260138F00B20
:10020800016E00380F0B01260038F00B006E0E84CB
:10021800D89002BED1EF00F00036013602360E2A21
:1002280002BED1EF00F00036013602360E2A02BEB9
:10023800D1EF00F00036013602360E2AD1EF00F079
:1002480001C002F000C001F0006A000E0E960E8890
:10025800026451EF01F0F00E0214D8A43CEF01F053
:10026800023A01380F0B02260138F00B016E0E849A
:10027800D89002BED1EF00F0013602360E2A02BE37
:10028800D1EF00F0013602360E2A02BED1EF00F09F
:10029800013602360E2AD1EF00F001C002F0016AE1
:1002A800000E0E86026481EF01F0F00E0214D8A44D
:1002B80060EF01F0023A0E84D89002BED1EF00F050
:1002C80002360E2A02BED1EF00F002360E2A02BE16
:1002D800D1EF00F002360E2AD1EF00F0010E0C6EBD
:1002E80012DF84EF01F0020E0C6E09DF84EF01F0DB
:1002F800040E0C6EF1DE84EF01F0080E0C6EF8DED1
:020308001200E1
:10030A000B800BAE91EF01F0026A0AAEFF0E026E8D
:0C031A00016E006E0A360232FF0E120067
:10032600025006180E6E086A096A0B6A03500764C3
:1003360086EF02F006500A6E068E028E03500B6E92
:100346000750036E000E0B64D6EF01F00B50075EEC
:10035600D8B477EF02F0070E076445EF02F0075EA8
:1003660000C008F001C000F002C001F0026A074EAA
:1003760077EF02F007641AEF02F0075E00C008F09C
:1003860001C000F0016A074E77EF02F00764F8EF4C
:1003960001F0075E00C008F0006A074E77EF02F032
:1003A6000764DFEF01F00AC002F005C001F004C0E7
:1003B60000F0086AA0EF03F0030E0764EAEF01F00D
:1003C600075E08380F0B086E074E77EF02F0D890DD
:1003D6000832074E77EF02F0D8900832074E77EFD3
:1003E60002F0D890083277EF02F0030E076409EFA7
:1003F60002F0075E08380F0B086E0038F00B08266F
:1004060000380F0B006E074E77EF02F0D8900032DF
:100416000832074E77EF02F0D89000320832074EC6
:1004260077EF02F0D8900032083277EF02F0030E31
:10043600076431EF02F0075E08380F0B086E0038CC
:10044600F00B082600380F0B006E0138F00B002663
:1004560001380F0B016E074E77EF02F0D89001328C
:1004660000320832074E77EF02F0D89001320032A0
:100476000832074E77EF02F0D89001320032083288
:1004860077EF02F0030E076462EF02F0075E0838AA
:100496000F0B086E0038F00B082600380F0B006EA5
:1004A6000138F00B002601380F0B016E0238F00BF5
:1004B600012602380F0B026E074E77EF02F0D89036
:1004C6000232013200320832074E77EF02F0D8903E
:1004D6000232013200320832074E77EF02F0D8902E
:1004E6000232013200320832096A000E0EAE6BEF9C
:1004F60003F0081E001E011E021E082A0022012209
:1005060002226BEF03F00750D8A48CEF02F0A0EFA5
:1005160003F0096A02C00AF0028E068E0750035CD9
:10052600076ED8B45EEF03F0070E07642CEF03F0F6
:10053600075E0450096E0550046E0650056E066A85
:10054600074E5EEF03F0070E076401EF03F0075E48
:100556000450096E0550046E056A074E5EEF03F0FF
:10056600070E0764DFEF02F0075E0450096E046AA7
:10057600074E5EEF03F0070E0764C6EF02F00AC0EF
:1005860002F0A0EF03F0030E0764D1EF02F0075E5E
:1005960009380F0B096E074E5EEF03F0D89009324B
:1005A600074E5EEF03F0D8900932074E5EEF03F078
:1005B600D89009325EEF03F0030E0764F0EF02F005
:1005C600075E09380F0B096E0438F00B092604384C
:1005D6000F0B046E074E5EEF03F0D890043209321B
:1005E600074E5EEF03F0D89004320932074E5EEFF5
:1005F60003F0D890043209325EEF03F0030E07646D
:1006060018EF03F0075E09380F0B096E0438F00B7C
:10061600092604380F0B046E0538F00B042605383E
:100626000F0B056E074E5EEF03F0D89005320432CD
:100636000932074E5EEF03F0D890053204320932D4
:10064600074E5EEF03F0D8900532043209325EEFB2
:1006560003F0030E076449EF03F0075E09380F0B3A
:10066600096E0438F00B092604380F0B046E0538A2
:10067600F00B042605380F0B056E0638F00B052621
:1006860006380F0B066E074E5EEF03F0D890063263
:10069600053204320932074E5EEF03F0D890063277
:1006A600053204320932074E5EEF03F0D890063267
:1006B600053204320932086A000E0EAE6BEF03F003
:1006C600091E041E051E061E092A042205220622EC
:1006D6000950082604500022055001220650022225
:1006E6000EBE82EF03F0D8A091EF03F00232013282
:1006F60000320832033E91EF03F09BEF03F0D8B0CF
:1007060096EF03F0000E081E001E011E021E082AA8
:100716000022012202220A7E96EF03F0010E0C6EE1
:1007260000DDA2EF03F0020E0C6EFBDCA2EF03F07D
:10073600040E0C6ED2DCA2EF03F0000E0C6E12005B
:0A074600210E0D6E0D2EFED71200DD
:100750000B6A0C6A086A0350D8B42CEF04F002C08C
:100760000AF0028E9E0E035E03AE1CEF04F0036CD3
:10077000080E035CD8A0E9EF03F0036E083600C052
:1007800008F001C000F002C001F0026A080E035C2C
:10079000D8A0E9EF03F0036E083600C008F001C0EE
:1007A00000F0016A080E035CD8A0E9EF03F0036EC5
:1007B000083600C008F0006A080E035CD8A0E9EF14
:1007C00003F0036E0836086A0350D8A4D890F5EFFA
:1007D00003F00350D8B4F5EF03F0D89002320132A1
:1007E00000320832032EEDEF03F00BBC08A006EF39
:1007F00004F0D8A006EF04F0082AD8B4002AD8B430
:10080000012AD8B4022A02BE30EF04F00AAE2CEF5F
:1008100004F0021E011E001E081E082AD8B4002A79
:10082000D8B4012AD8B4022A2CEF04F0026A016A73
:10083000006A086A2CEF04F00B800BAE36EF04F070
:10084000026A0AAE36EF04F0026E016E006E086EA8
:100850000A36023236EF04F00C6A000E37EF04F06D
:10086000010E0C6E000E51DD37EF04F0FF0E02504A
:10087000036E0150026E0050016E0850006E1200AF
:06088000067E51DD1200AE
:100886000C6A0E6A0250D8A45CEF04F001C002F0B4
:1008960000C001F0006A0E860250D8A45CEF04F096
:1008A60001C002F0016A0E960E880250D8B46EEFAF
:1008B60004F00E50035ED8A4D8A073EF04F0D890CD
:1008C60002BE78EF04F0003601360236032E63EFDF
:1008D60004F073EF04F0010E0C6E0BDC7BEF04F0FA
:1008E600020E0C6E11DC7BEF04F0040E0C6E08DCBD
:0208F6001200EE
:1008F800086A096A000E0762036401EF05F00250F6
:1009080006180A6E075003267E0ED8A092EF04F050
:10091800035ED8B006EF05F096EF04F0035ED8A0AA
:100928000BEF05F0028E068E02C00EF001C00BF030
:1009380000C00DF000500402F4CF0CF00150050285
:10094800F4CF00F0F3CF08F00402F3500C26F45073
:100958000822000E00220D500502F3500C26F45018
:100968000822000E002202500402F3500826F45018
:10097800002202500502016A000E0122F3500026EF
:10098800F45001220D500602F3500826F4500022BC
:10099800026A000E012202220B500602F3500026C2
:1009A800F4500122000E02220E500602F3500126D6
:1009B800F450022202BEE9EF04F008360036013690
:1009C80002360306D8B40BEF05F0FCEF04F0D8802C
:1009D800800E08640030000E002201220222D8A0F6
:1009E800FCEF04F0023201320032034A06EF05F050
:1009F8000AAE029E000E0EEF05F0010E7CEC00F030
:100A08000EEF05F0020E70EC00F00EEF05F0040E8C
:060A180087EC00F0120063
:060A1E00000000001200C0
:100A24000F0E0C6E470E0D6E0D2EFED70C2EFCD73E
:060A3400000000001200AA
:100A3A000050086E0150006E0250016E0350026EA3
:100A4A00036A0B6A0C6A9E0E036E0A6A02AE3AEFDA
:100A5A0005F0081E001E011E021E082AD8B4002A2C
:100A6A00D8B4012AD8B4022A0A8E020E0C6E94EC6B
:040A7A0000F0120076
:080A7E000B6A0B86FF0E12004B
:100A86000A6A0350D8A40A800750D8A40A820A50DA
:100A9600D8B4A6EF05F0030AD8B45FEF05F00AB0A4
:100AA6005AEF05F006AEA4EF05F0A2EF05F002AE90
:100AB600A2EF05F0A4EF05F00250800B0A6E029E2D
:100AC6000650800B069E0A18D8B470EF05F00A503F
:100AD600D8B4A2EF05F0A4EF05F00750035CD8B434
:100AE6007AEF05F0D8A096EF05F09CEF05F00650DA
:100AF600025CD8B484EF05F0D8A096EF05F09CEF21
:100B060005F00550015CD8B48EEF05F0D8A096EF3D
:100B160005F09CEF05F00450005CD8B4A6EF05F094
:100B2600D8B09CEF05F00A52D8B4A4EF05F0A2EFB6
:100B360005F00A52D8B4A2EF05F0A4EF05F0D8806C
:0E0B46001200D8901200D880D884120012003D
:100B54000450000A12E10550000A0FE10650000A91
:100B64000CE10750000A09E1FF0E006EFF0E016E52
:100B74007F0E026EFF0E036EA7D0086A096A075043
:100B8400D8B455EF06F00350D8B459EF06F002502C
:100B940006180A6E028E068E0E6A02C008F001C0A4
:100BA4000CF000C00DF004500D5E0550D8A0053CBB
:100BB4000C5E0650D8A0063C085E086A0C6A0D6AF2
:100BC400D8A0ECEF05F0D89002320132003208329E
:100BD400010E0E6E0750035ED8A0F9EF05F07E0EED
:100BE4000E240326D8B05EEF06F0FFEF05F07E0E6C
:100BF4000E240326D8A063EF06F0180E0B6E0D36F4
:100C04000C3608360036013602360E360450005EC5
:100C14000550D8A0053C015E0650D8A0063C025EF3
:100C240006340E120EA01AEF06F00D8025EF06F022
:100C3400045000260550D8B0053C01260650D8B013
:100C4400062802260D900B2E01EF06F04BEF06F05E
:100C5400D8900036013602360E360450005E055038
:100C6400D8A0053C015E0650D8A0063C025E0634BE
:100C74000E10010B0D26D8B00C2AD8B4082AD8A41B
:100C84004BEF06F008320C320D32032AD8B45EEF73
:100C940006F00AAE089E0850026E0C50016E0D500C
:100CA400006E66EF06F0010EE8DE66EF06F0020E57
:100CB4007CEC00F066EF06F0040E70EC00F066EFDA
:0A0CC40006F0080E87EC00F01200A5
:100CCE00620E686E000E696E030E6824D96E000EF9
:100CDE006920DA6EDE506624016E000E6720026E09
:100CEE0001C066F002C067F0800E0218006E800E22
:100CFE00005C02E1000E015C05E2006A016A026A14
:100D0E00036A3ED0800E006E800E6718005C02E112
:100D1E006650FF0825E2046A056A066A076A62C021
:100D2E0000F063C001F064C002F065C003F0A4DE01
:100D3E00010ED8B0000E006E005209E0FF0E006EDC
:100D4E00FF0E016EFF0E026EFF0E036E19D0FF0E28
:100D5E00006EFF0E016E7F0E026EFF0E036E10D040
:100D6E00030E6824E16E000E6920E26E66C0E6FF97
:100D7E0062C000F063C001F064C002F065C003F011
:020D8E00120051
:100D90000B6A0350D8B40EEF07F002500A6E028EB1
:100DA0008E0E035E03AE12EF07F0036C080E035CB9
:100DB000D8A0EDEF06F0036E013602C001F0026A22
:100DC000080E035CD8A0EDEF06F0036E0136016A51
:100DD0000350D8A4D890F7EF06F00350D8B4F7EF3B
:100DE00006F0D89002320132032EF1EF06F00BBC70
:100DF00001A004EF07F0D8A004EF07F0012AD8B44F
:100E0000022A02BE21EF07F00AAE27EF07F0021E0A
:100E1000011E012AD8B4022A27EF07F0026A016AEC
:100E200027EF07F00B800BAE2BEF07F0026A0AAE3C
:100E30002BEF07F0FF0E026E016E0A3602322BEF27
:100E400007F0010E0C6E85EC01F02DEF07F0000E9F
:100E50000C6E2DEF07F0FF0E0C6E0150006E02506D
:040E6000016E12000D
:100E640062BE02D0829E01D0828E62BC02D0829C7D
:100E740001D0828C62BA02D0829A01D0828A62B88E
:100E840002D0829801D0828841B002D0828401D0FD
:100E940082948286C2DD829662B602D0829E01D09E
:100EA400828E62B402D0829C01D0828C62B202D063
:100EB400829A01D0828A62B002D0829801D082885C
:100EC40041B002D0828401D082948286A6DD8296CB
:0C0ED40041A002D0A5DD01D034DC1200EA
:100EE00069C000F06AC001F0000E6ABEFF0E026E1B
:100EF000036E00360090013602360336003600904D
:100F000001360236033666500024F66E6750012023
:100F1000F76E68500220F86E0900F5CF6BF00900FB
:100F2000F5CF6CF00900F5CF6DF00900F5CF6EF04C
:100F300069506A1048E062C000F063C001F064C00C
:100F400002F065C003F06BC004F06CC005F06DC02A
:100F500006F06EC007F0D0DC010E695E000E6A5A22
:100F600069C004F06AC005F0000E6ABEFF0E066E8E
:100F7000076E0436049005360636073604360490AC
:100F800005360636073666500424F66E675005208F
:100F9000F76E68500620F86E0900F5CF04F00900DE
:100FA000F5CF05F00900F5CF06F00900F5CF07F001
:100FB00093EC01F000C06BF001C06CF002C06DF06A
:100FC00003C06EF0B5D76BC000F06CC001F06DC00F
:080FD00002F06EC003F01200F4
:100FD800620E046E000E056E030E0424E96E000E08
:100FE8000520EA6E7E0EEE5C006E016A000E015A64
:100FF80066C0E1FF67C0E2FF00C0E6FF01C0E6FF90
:10100800030E0424E16E000E0520E26E7E0EE66EED
:1010180062C000F063C001F064C002F065C003F074
:021028001200B4
:10102A0003500718D8A429EF08F002500618D8A4CC
:10103A0029EF08F001500518D8A429EF08F000504C
:0E104A000418D8B4D8841200D89412001200F2
:1010580000C008F00150006E016A026A036A0B6A58
:101068000C6A016A026A036A960E036E0A6A00AE87
:1010780044EF08F0081E001E082AD8B4002A0A8E79
:1010880000C001F008C000F0086A026A43EC04F0EE
:02109800120044
:10109A0065C000F0016A026A036AFF0E0016000EBC
:1010AA00011600C06AF001C06BF07F0E005C026E90
:1010BA00000E0158036E02C06AF003C06BF0800E86
:1010CA000318006E800E005C02E1000E025C21E251
:1010DA00046A056A066A076A62C000F063C001F022
:1010EA0064C002F065C003F0C9DC010ED8B0000E7E
:1010FA00006E005209E0000E006E000E016E800EB6
:10110A00026E7F0E036E59D0006A016A026A036A90
:10111A0054D06B50000802E16A50180809E262C014
:10112A0000F063C001F064C002F065C003F045D06E
:10113A0062C000F063C001F064C002F065C003F051
:10114A00A8EC03F075DC00C066F001C067F002C0CD
:10115A0068F003C069F000C004F001C005F002C0E5
:10116A0006F003C007F062C000F063C001F064C07B
:10117A0002F065C003F082DC010ED8B0000E006EEA
:10118A00005213E0000E046E000E056E000E066E8D
:10119A007F0E076E66C000F067C001F068C002F0FB
:1011AA0069C003F040EC04F008D066C000F067C0E4
:0C11BA0001F068C002F069C003F01200F0
:0C11C600419058C062F04BDE41801200E6
:1011D20058C004F059C005F05AC006F05BC007F0D1
:1011E200006A016A026A036A4DDC000ED8B0010E81
:1011F200006E005205E0006A016A026A036A69D061
:1012020058C062F059C063F05AC064F05BC065F028
:101212005C0E666E000E676EDEDE000E046E000E61
:10122200056E000E066E800E076E7CEC04F0000E5A
:10123200046E000E056E000E066E7F0E076E40EC09
:1012420004F000C058F001C059F002C05AF003C0C7
:101252005BF0010E5C5E000E5D5A00C062F001C0E0
:1012620063F002C064F003C065F0420E666E1E0EAB
:10127200676E000E686E080E696E000E6A6E2FDED3
:1012820000C05EF001C05FF002C060F003C061F018
:101292005EC058F05FC059F060C05AF061C05BF0A8
:1012A2005CC000F05DC001F0D6DE180E046E720E56
:1012B200056E310E066E7E0E076E7CEC04F05EC08B
:1012C20004F05FC005F060C006F061C007F093EC67
:0412D20001F0120015
:1012D6000D6A086A0050D8B4000C04180A6E0ABEDB
:1012E6000D1E0B6A04AE02D0041E042A00AE02D004
:1012F600001E002A005004100A6E0ABE1FD00450B9
:10130600085E003600340836045008260036060EFD
:101316000C6E00340836045000B0085E00A00826A3
:1013260000360C2EF6D700A008260BB015D00DAE51
:10133600000C001E002A081E082A000C04AE09D064
:1013460000BE04D00050086E006AF1D7006A002A79
:10135600000C001E0B2AD3D7082A0450085CD8A418
:0E136600E6D7086A002A00AEE2D7FF0C12009C
:10137400046A056A066A076A58C000F059C001F099
:101384005AC002F05BC003F04EDE010ED8A4000E7A
:10139400006E005209E0000E006E000E016E000E99
:1013A400026E7F0E036EFAD058C004F059C005F0E7
:1013B4005AC006F05BC007F0FC0E006ED40E016E3E
:1013C400320E026E850E036E43EC05F0010ED8B0AA
:1013D400000E006E005209E0FF0E006EFF0E016E5B
:1013E4007F0E026EFF0E036ED9D04F0E046EAC0E4C
:1013F400056EAE0E066E850E076E58C000F059C01D
:1014040001F05AC002F05BC003F043EC05F0010E9A
:10141400D8B0000E006E005205E0006A016A026A4C
:10142400036ABCD0046A056A066A076A58C000F0F9
:1014340059C001F05AC002F05BC003F043EC05F060
:10144400010ED8B0000E006E00C05EF00052D8A4A9
:101454005A7E58C000F059C001F05AC002F05BC077
:1014640003F03B0E046EAA0E056E380E066E7F0E58
:10147400076E7CEC04F000C058F001C059F002C0C3
:101484005AF003C05BF000C062F001C063F002C018
:1014940064F003C065F0FFDD79DC00C05CF001C0DE
:1014A4005DF0D8DD00C004F001C005F002C006F014
:1014B40003C007F058C000F059C001F05AC002F050
:1014C4005BC003F040EC04F000C058F001C059F0D8
:1014D40002C05AF003C05BF000C062F001C063F0C8
:1014E40002C064F003C065F01A0E666E1E0E676ECD
:1014F400000E686E090E696E000E6A6EEFDC00C0A5
:1015040062F001C063F002C064F003C065F05CC027
:1015140066F05DC067F067EC06F000C058F001C0EB
:1015240059F002C05AF003C05BF05E522FE0FF0E88
:10153400046EFF0E056E7F0E066EFF0E076E58C01A
:1015440000F059C001F05AC002F05BC003F06BDD3B
:10155400010ED8A4000E006E005205E0006A016A74
:10156400026A036A1BD058C004F059C005F05AC07F
:1015740006F05BC007F0000E006E000E016E000E58
:10158400026E7F0E036EAAEC05F008D058C000F07E
:0E15940059C001F05AC002F05BC003F0120013
:1015A20058C004F059C005F004C002F005C003F0B1
:1015B200044A052A5AC000F05BC001F05A4A5B2A6D
:1015C20000C0E9FF01C0EAFF02C0E1FF03C0E2FF81
:1015D200EECFE6FF02C0E9FF03C0EAFFEE5201E0F0
:0C15E200E3D758C000F059C001F012001F
:1015EE00566A576A4AC052F04BC053F04CC054F082
:1015FE004DC055F05550FF0A08E15450FF0A05E161
:10160E005350FF0A02E15250FF0A0CE14EC058F04F
:10161E004FC059F01D0E5A6E000E5B6EBBDF030EEF
:10162E00006EEDD1010E506E54AE0ED0800E5418D9
:10163E00006E00C054F0502A4EC0E1FF4FC0E2FFD2
:10164E002D0EE66E4E4A4F2A000E006E551808E11A
:10165E000050541805E10050531802E15250000A90
:10166E000BE14EC058F04FC059F0290E5A6E000EC5
:10167E005B6E90DF006AC3D15550FF0A08E15450EB
:10168E00000A05E15350000A02E15250000A0CE133
:10169E004EC058F04FC059F0250E5A6E000E5B6EBC
:1016AE0079DF50C000F0ABD1000E046E000E056E57
:1016BE00000E066E7F0E076E52C000F053C001F092
:1016CE0054C002F055C003F043EC05F0010ED8B043
:1016DE00000E006E00521CE052C000F053C001F02C
:1016EE0054C002F055C003F0000E046E000E056EDD
:1016FE00200E066E820E076E7CEC04F000C052F0D7
:10170E0001C053F002C054F003C055F05706CCD7B9
:10171E00000E046E000E056E200E066E820E076E13
:10172E0052C000F053C001F054C002F055C003F097
:10173E0043EC05F0000ED8B0010E006E00521CE016
:10174E0052C000F053C001F054C002F055C003F077
:10175E00CD0E046ECC0E056E4C0E066E7B0E076E15
:10176E007CEC04F000C052F001C053F002C054F003
:10177E0003C055F0572ACCD7FF0E5214086EFF0E39
:10178E005314096E7F0E54140A6E000E55140B6E10
:10179E0008C004F009C005F00AC006F00BC007F03F
:1017AE0004360490053606360736000E5214006EC7
:1017BE00000E5314016E000E5414026EFF0E5514DB
:1017CE00036E00C052F001C053F002C054F003C0CB
:1017DE0055F004505210006E05505310016E065015
:1017EE005410026E07505510036E00C052F001C027
:1017FE0053F002C054F003C055F07F0E555C006EDE
:10180E0000C051F0010E556E00C004F052C000F041
:10181E0053C001F054C002F055C003F0045007E06D
:10182E0000360090013602360336FF0FF8D700C09F
:10183E0052F001C053F002C054F003C055F04EC038
:10184E00E1FF4FC0E2FF5550300FE66E4E4A4F2A71
:10185E00800E5718006E800E010A005C08E3800EA1
:10186E00060A006E800E5718005C01E30AD04EC0C7
:10187E00E1FF4FC0E2FF2E0EE66E4E4A4F2A010EDA
:10188E00566E060E516E5150000A54E0556A52C003
:10189E0000F053C001F054C002F055C003F0003602
:1018AE0000900136023603360036009001360236BD
:1018BE0003365250002653500122545002225550E6
:1018CE00032200C052F001C053F002C054F003C016
:1018DE0055F052C000F053C001F054C002F055C094
:1018EE0003F00036009001360236033600C052F087
:1018FE0001C053F002C054F003C055F04EC0E1FFDA
:10190E004FC0E2FF5550300FE66E4E4A4F2A5650EA
:10191E00000A0EE157065750000A0AE14EC0E1FFD9
:10192E004FC0E2FF2E0EE66E4E4A4F2A010E566E45
:10193E005106A9D7FF0E4E24E96EFF0E4F20EA6E18
:10194E00EE50300A05E1010E4E5E000E4F5AF2D7F0
:10195E00FF0E4E24E96EFF0E4F20EA6EEE502E0A59
:10196E0004E1010E4E5E000E4F5A5750000A41E040
:10197E004EC0E1FF4FC0E2FF650EE66E4E4A4F2AA3
:10198E00800E5718006E800E000A005C0BE24EC0EF
:10199E00E1FF4FC0E2FF2D0EE66E4E4A4F2A575022
:1019AE000008576E57C051F0800E090A006E800E67
:1019BE005718005C0EE20A0E046E51C000F084DC73
:1019CE004EC0E1FF4FC0E2FF0050300FE66E4E4AB0
:1019DE004F2A0A0E046E51C000F076DC08C000F0EB
:1019EE004EC0E1FF4FC0E2FF0050300FE66E4E4A90
:1019FE004F2A4EC0E1FF4FC0E2FFE66A006A1200B6
:101A0E00566A046A056A066A076A4EC000F04FC03D
:101A1E0001F050C002F051C003F015EC08F0010EB9
:101A2E00D8A4000E006E005209E0000E006E000EEB
:101A3E00016E000E026E7F0E036EA6D0046A056A5A
:101A4E00066A076A4AC000F04BC001F04CC002F0B3
:101A5E004DC003F015EC08F0010ED8A4000E006E78
:101A6E00005205E0006A016A026A036A8DD0046AB8
:101A7E00056A066A076A4AC000F04BC001F04CC006
:101A8E0002F04DC003F043EC05F0010ED8B0000E8D
:101A9E00006E00522DE04EC000F04FC001F050C05D
:101AAE0002F051C003F0A8EC03F000C052F001C0E8
:101ABE0053F002C054F003C055F01DEC05F04EC0BB
:101ACE0004F04FC005F050C006F051C007F015EC01
:101ADE0008F0000ED8A4010E006E005205E0006A58
:101AEE00016A026A036A50D0010E5214566E4C7E81
:101AFE004AC058F04BC059F04CC05AF04DC05BF084
:101B0E00E9EC08F000C04AF001C04BF002C04CF006
:101B1E0003C04DF04EC004F04FC005F050C006F0AB
:101B2E0051C007F07CEC04F000C04AF001C04BF04D
:101B3E0002C04CF003C04DF000C058F001C059F087
:101B4E0002C05AF003C05BF00EDC00C04AF001C0C8
:101B5E004BF002C04CF003C04DF056520DE0000E9B
:101B6E004A18006E000E4B18016E800E4C18026E55
:101B7E00000E4D18036E08D04AC000F04BC001F0A5
:0A1B8E004CC002F04DC003F012003D
:101B98000FD0800E4A6E19D0C00E4A6E16D0940E21
:101BA8004A6E13D0D40E4A6E10D0800E4A6E0DD0F5
:101BB8004A50010AEEE04A50020AEEE04A50030A8F
:101BC800EEE04A50040AEEE0F0D74B04006E4A50AB
:101BD800002600C04AF000C062F032EC07F04190E5
:101BE8004E6A4E504C24E96E000E4D20EA6EEE52BD
:101BF8000CE04E504C24E96E000E4D20EA6EEECFFC
:0E1C080058F0E3EC08F04E2AECD741801200B1
:101C1600949694949498949A949C949E8296829482
:101C2600829E829C829A829812EC05F012EC05F054
:101C360012EC05F0828A828882860FEC05F0829685
:101C460012EC05F082860FEC05F0829612EC05F098
:101C560082860FEC05F0829612EC05F08298828659
:101C66000FEC05F0829612EC05F082860FEC05F07B
:101C76008296829A828E82860FEC05F0829612EC0C
:101C860005F0829E828882860FEC05F08296829805
:101C960082860FEC05F0829612EC05F082860FEC38
:101CA60005F08296828882860FEC05F0829612EC09
:101CB60005F0829882860FEC05F08296828E828CE1
:101CC600828A828882860FEC05F0829612EC05F0F5
:041CD6004180120037
:101CDA000900F5CFE6FF0006FBE10106F9E1120073
:101CEA0042C04AF043C04BF044C04CF045C04DF0EE
:101CFA00310E4E6E000E4F6E75DC010E626E32ECC6
:101D0A0007F0010E4A6E010E4B6E310E4C6E000E3C
:061D1A004D6E3DDF1200DA
:101D2000000E4A6E000E4B6E200E4C6E820E4D6EF3
:101D3000000E4E6E000E4F6E400E506E800E516EB5
:101D400066DE000E046E000E056E700E066E820ECC
:101D5000076E7CEC04F000C046F001C047F002C002
:101D600048F003C049F042C004F043C005F044C04D
:101D700006F045C007F0000E006E000E016E200E4A
:101D8000026E810E036EAAEC05F0000E046E000ECA
:101D9000056E000E066E7F0E076E40EC04F046C026
:101DA00004F047C005F048C006F049C007F07CECDD
:101DB00004F0000E046ED90E056E780E066E8F0EBE
:101DC000076EAAEC05F000C04AF001C04BF002C05B
:101DD0004CF003C04DF03E0E4E6E260E4F6E950E2B
:0A1DE000506E7F0E516E13DE1200EC
:101DEA003DEC0FF013DF93909682710EC26EC00E17
:101DFA00C16E9E9C9D8CF28C840ED56E0B0ED76E96
:101E0A00DC0ED66EF294F28AF28EC284FFD7FFD726
:101E7A0010EE1DF0140E006E010E016E660EF66E67
:0E1E8A001E0EF76E000EF86E6DEC0EF01200DC
:101E1A000000007F1872317EF0FD757C4758637AA6
:101E2A0058951D7882C42E75A8782172EF93006F99
:081E3A00A092276B46561568C3
:101E4200FFE65B5DC4FF7F7E80EFFF7D90E1297D31
:101E5200EC82F67C82AD2B7C0E3CC37B87D1137A5D
:041E62004178D37779
:041E66004E614E007B
:041E6A000000000074
:041E6E00494E460093
:021E720030003E
:041E7400000000006A
:021E7800000068
:020000040030CA
:0D000100220F0EFF0181FF0FC00FE00F4026
:00000001FF
