:04000000A4EF0AF06F
:1000080000C018F001C017F00CC016F00DC015F0B4
:100018009EAC57D0C4CF01F0006AC3500026000E32
:10002800012200C029F001C02AF083EC0AF0520E28
:10003800046E270E056E200E066E770E076EF6DB31
:1000480000C02FF001C030F002C031F003C032F020
:1000580000C044F001C045F002C046F003C047F0BC
:10006800D7EC08F000C02BF001C02CF002C02DF036
:1000780003C02EF000C044F001C045F002C046F0B5
:1000880003C047F019C048F01AC049F05DEC09F008
:1000980000C01BF001C01CF002C01DF003C01EF020
:1000A80000C044F001C045F002C046F003C047F06C
:1000B80066EC0AF0D58E0B0ED76EDC0ED66EC290AB
:1000C8009E9CF2A404D0C280C284D59EF294F0A073
:1000D8002ED0194A1A2A800E006E800E1A18005C5B
:1000E80002E11950070802E2196A1A6A2BC044F0A3
:1000F8002CC045F02DC046F02EC047F019C048F07E
:100108001AC049F05DEC09F000C01BF001C01CF0FA
:1001180002C01DF003C01EF000C044F001C045F04D
:1001280002C046F003C047F066EC0AF0F09018C031
:1001380000F017C001F016C00CF015C00DF011004A
:060148000000000012009F
:10014E000B820BAEB1EF00F0036802680168006825
:08015E000A360232FF0E120006
:080166000AAE029E000E120019
:10016E000F0E0C6E470E0D6E0D2EFED70C2EFCD7FD
:06017E0000000000120069
:0E018400026A016A006A086A036A000E12002D
:0A019200210E0D6E0D2EFED7120097
:10019C000B840BAED9EF00F0010E036E026A016AFC
:0A01AC00006A0A360232FF0E12004C
:1001B6000CB01DEF01F00CA2C3EF01F00E6A000EA9
:1001C600026434EF01F0F00E0214D8A4FFEF00F041
:1001D600023A01380F0B02260138F00B016E003887
:1001E6000F0B01260038F00B006E08380F0B0026A7
:1001F6000838F00B086E0E84D89002BE18EF01F096
:1002060008360036013602360E2A02BE18EF01F015
:1002160008360036013602360E2A02BE18EF01F005
:1002260008360036013602360E2A0E500364B9EF40
:1002360001F0035E0BBC08AEBEEF01F0D880800E65
:1002460008640030000E002201220222D8A0BEEF70
:1002560001F0023201320032034AC3EF01F0BEEF71
:1002660001F001C002F000C001F008C000F0086A09
:10027600000E0E8602646BEF01F0F00E0214D8A495
:1002860053EF01F0023A01380F0B02260138F00B4A
:10029600016E00380F0B01260038F00B006E0E843D
:1002A600D89002BE18EF01F00036013602360E2A4B
:1002B60002BE18EF01F00036013602360E2A02BEE3
:1002C60018EF01F00036013602360E2A18EF01F05B
:1002D60001C002F000C001F0006A000E0E960E8802
:1002E600026498EF01F0F00E0214D8A483EF01F037
:1002F600023A01380F0B02260138F00B016E0E840C
:10030600D89002BE18EF01F0013602360E2A02BE60
:1003160018EF01F0013602360E2A02BE18EF01F080
:10032600013602360E2A18EF01F001C002F0016A0A
:10033600000E0E860264C8EF01F0F00E0214D8A477
:10034600A7EF01F0023A0E84D89002BE18EF01F032
:1003560002360E2A02BE18EF01F002360E2A02BE3F
:1003660018EF01F002360E2A18EF01F0010E0C6E9E
:1003760012DFCBEF01F0020E0C6EF2DECBEF01F0D6
:10038600040E0C6EE1DECBEF01F0080E0C6EF7DE0C
:02039600120053
:1003980060BE02D0829E01D0828E60BC02D0829C58
:1003A80001D0828C60BA02D0829A01D0828A60B869
:1003B80002D0829801D0828843B002D0828401D0D2
:1003C80082948286BDDE829660B602D0829E01D07B
:1003D800828E60B402D0829C01D0828C60B202D03E
:1003E800829A01D0828A60B002D0829801D0828835
:1003F80043B002D0828401D082948286A1DE8296A4
:0C04080043A002D0B0DE01D0C0DE120024
:10041400025006180E6E086A096A0B6A03500764D4
:10042400FDEF02F006500A6E068E028E03500B6E2C
:100434000750036E000E0B644DEF02F00B50075E85
:10044400D8B4EEEF02F0070E0764BCEF02F0075ECB
:1004540000C008F001C000F002C001F0026A074EBB
:10046400EEEF02F0076491EF02F0075E00C008F0BF
:1004740001C000F0016A074EEEEF02F007646FEF6F
:1004840002F0075E00C008F0006A074EEEEF02F0CB
:10049400076456EF02F00AC002F005C001F004C080
:1004A40000F0086A17EF04F0030E076461EF02F02E
:1004B400075E08380F0B086E074EEEEF02F0D89077
:1004C4000832074EEEEF02F0D8900832074EEEEFF6
:1004D40002F0D8900832EEEF02F0030E076480EFCA
:1004E40002F0075E08380F0B086E0038F00B082680
:1004F40000380F0B006E074EEEEF02F0D89000327A
:100504000832074EEEEF02F0D89000320832074E60
:10051400EEEF02F0D89000320832EEEF02F0030E54
:100524000764A8EF02F0075E08380F0B086E003866
:10053400F00B082600380F0B006E0138F00B002674
:1005440001380F0B016E074EEEEF02F0D890013226
:1005540000320832074EEEEF02F0D890013200323A
:100564000832074EEEEF02F0D89001320032083222
:10057400EEEF02F0030E0764D9EF02F0075E0838CD
:100584000F0B086E0038F00B082600380F0B006EB6
:100594000138F00B002601380F0B016E0238F00B06
:1005A400012602380F0B026E074EEEEF02F0D890D0
:1005B4000232013200320832074EEEEF02F0D890D8
:1005C4000232013200320832074EEEEF02F0D890C8
:1005D4000232013200320832096A000E0EAEE2EF36
:1005E40003F0081E001E011E021E082A002201221A
:1005F4000222E2EF03F00750D8A403EF03F017EF51
:1006040004F0096A02C00AF0028E068E0750035CE9
:10061400076ED8B4D5EF03F0070E0764A3EF03F019
:10062400075E0450096E0550046E0650056E066A96
:10063400074ED5EF03F0070E076478EF03F0075E6B
:100644000450096E0550046E056A074ED5EF03F099
:10065400070E076456EF03F0075E0450096E046A40
:10066400074ED5EF03F0070E07643DEF03F00AC011
:1006740002F017EF04F0030E076448EF03F0075E7F
:1006840009380F0B096E074ED5EF03F0D8900932E5
:10069400074ED5EF03F0D8900932074ED5EF03F09B
:1006A400D8900932D5EF03F0030E076467EF03F027
:1006B400075E09380F0B096E0438F00B092604385D
:1006C4000F0B046E074ED5EF03F0D89004320932B5
:1006D400074ED5EF03F0D89004320932074ED5EF18
:1006E40003F0D89004320932D5EF03F0030E076407
:1006F4008FEF03F0075E09380F0B096E0438F00B17
:10070400092604380F0B046E0538F00B042605384F
:100714000F0B056E074ED5EF03F0D8900532043267
:100724000932074ED5EF03F0D8900532043209326E
:10073400074ED5EF03F0D890053204320932D5EFD5
:1007440003F0030E0764C0EF03F0075E09380F0BD4
:10075400096E0438F00B092604380F0B046E0538B3
:10076400F00B042605380F0B056E0638F00B052632
:1007740006380F0B066E074ED5EF03F0D8900632FD
:10078400053204320932074ED5EF03F0D890063211
:10079400053204320932074ED5EF03F0D890063201
:1007A400053204320932086A000E0EAEE2EF03F09D
:1007B400091E041E051E061E092A042205220622FD
:1007C4000950082604500022055001220650022236
:1007D4000EBEF9EF03F0D8A008EF04F002320132A4
:1007E40000320832033E08EF04F012EF04F0D8B0F0
:1007F4000DEF04F0000E081E001E011E021E082A42
:100804000022012202220A7E0DEF04F0010E0C6E7A
:10081400D0DC19EF04F0020E0C6ECBDC19EF04F0FF
:10082400040E0C6E92DC19EF04F0000E0C6E120034
:10083400086A096A000E076203649FEF04F002501D
:1008440006180A6E075003267E0ED8A030EF04F077
:10085400035ED8B0A3EF04F034EF04F0035ED8A035
:10086400A7EF04F0028E068E02C00EF001C00BF05A
:1008740000C00DF000500402F4CF0CF0015005024A
:10088400F4CF00F0F3CF08F00402F3500C26F45038
:100894000822000E00220D500502F3500C26F450DD
:1008A4000822000E002202500402F3500826F450DD
:1008B400002202500502016A000E0122F3500026B4
:1008C400F45001220D500602F3500826F450002281
:1008D400026A000E012202220B500602F350002687
:1008E400F4500122000E02220E500602F35001269B
:1008F400F450022202BE87EF04F0083600360136B7
:1009040002360306D8B4A7EF04F09AEF04F0D880B7
:10091400800E08640030000E002201220222D8A0BA
:100924009AEF04F0023201320032034AA3EF04F0DA
:100934000AAE029E000EA9EF04F0010E21DCA9EF1D
:1009440004F0020E02DCA9EF04F0040E25DC120010
:080954000B6A0B86FF0E120076
:10095C000D6A086A0050D8B4000C04180A6E0ABE5E
:10096C000D1E0B6A04AE02D0041E042A00AE02D087
:10097C00001E002A005004100A6E0ABE1FD004503C
:10098C00085E003600340836045008260036060E81
:10099C000C6E00340836045000B0085E00A0082627
:1009AC0000360C2EF6D700A008260BB015D00DAED5
:1009BC00000C001E002A081E082A000C04AE09D0E8
:1009CC0000BE04D00050086E006AF1D7006A002AFD
:1009DC00000C001E0B2AD3D7082A0450085CD8A49C
:0E09EC00E6D7086A002A00AEE2D7FF0C120020
:0C09FA0043905CC060F0CBDC4380120036
:100A06005CC004F05DC005F004C002F005C003F050
:100A1600044A052A5EC000F05FC001F05E4A5F2A04
:100A260000C0E9FF01C0EAFF02C0E1FF03C0E2FF28
:100A3600EECFE6FF02C0E9FF03C0EAFFEE5201E097
:0C0A4600E3D75CC000F05DC001F01200BE
:100A52000A6A0350D8A40A800750D8A40A820A500E
:100A6200D8B48CEF05F0030AD8B445EF05F00AB00C
:100A720040EF05F006AE8AEF05F088EF05F002AE12
:100A820088EF05F08AEF05F00250800B0A6E029E95
:100A92000650800B069E0A18D8B456EF05F00A508D
:100AA200D8B488EF05F08AEF05F00750035CD8B49C
:100AB20060EF05F0D8A07CEF05F082EF05F006505C
:100AC200025CD8B46AEF05F0D8A07CEF05F082EFA3
:100AD20005F00550015CD8B474EF05F0D8A07CEFA6
:100AE20005F082EF05F00450005CD8B48CEF05F0FD
:100AF200D8B082EF05F00A52D8B48AEF05F088EF39
:100B020005F00A52D8B488EF05F08AEF05F0D880D4
:0E0B12001200D8901200D880D8841200120071
:060B2000067E78DC1200E5
:100B26000C6A0E6A0250D8A4ACEF05F001C002F0C0
:100B360000C001F0006A0E860250D8A4ACEF05F0A2
:100B460001C002F0016A0E960E880250D8B4BEEFBC
:100B560005F00E50035ED8A4D8A0C4EF05F0D890D7
:100B660002BECAEF05F0003601360236032EB3EF99
:100B760005F0C4EF05F0010E0C6EC2EC00F0CEEFEE
:100B860005F0020E0C6ECEEC00F0CEEF05F0040E72
:080B96000C6EB3EC00F012003C
:100B9E000FD0800E4E6E19D0C00E4E6E16D0940E23
:100BAE004E6E13D0D40E4E6E10D0800E4E6E0DD0F3
:100BBE004E50010AEEE04E50020AEEE04E50030A8D
:100BCE00EEE04E50040AEEE0F0D74F04006E4E50A9
:100BDE00002600C04EF000C060F0CCEC01F0439057
:100BEE00526A52505024E96E000E5120EA6EEE52B7
:100BFE000BE052505024E96E000E5120EA6EEECFFB
:0C0C0E005CF0F4DE522AEDD743801200A7
:100C1A005A6A5B6A4EC056F04FC057F050C058F03F
:100C2A0051C059F05950FF0A08E15850FF0A05E12E
:100C3A005750FF0A02E15650FF0A0CE152C05CF01D
:100C4A0053C05DF01F0E5E6E000E5F6ED7DE030EA0
:100C5A00006EE9D1010E546E58AE0ED0800E5818AF
:100C6A00006E00C058F0542A52C0E1FF53C0E2FFA0
:100C7A002D0EE66E524A532A000E006E591808E1EC
:100C8A000050581805E10050571802E15650000A62
:100C9A000BE152C05CF053C05DF0270E5E6E000E91
:100CAA005F6EACDE006ABFD15950FF0A08E15850A6
:100CBA00000A05E15750000A02E15650000A0CE109
:100CCA0052C05CF053C05DF0230E5E6E000E5F6E84
:100CDA0095DE54C000F0A7D1000E046E000E056E1A
:100CEA00000E066E7F0E076E56C000F057C001F068
:100CFA0058C002F059C003F0A7DE010ED8B0000EAA
:100D0A00006E00521BE056C000F057C001F058C0F8
:100D1A0002F059C003F0000E046E000E056E200E9C
:100D2A00066E820E076E81DD00C056F001C057F0D4
:100D3A0002C058F003C059F05B06CED7000E046E0D
:100D4A00000E056E200E066E820E076E56C000F06B
:100D5A0057C001F058C002F059C003F075DE000E0A
:100D6A00D8B0010E006E00521BE056C000F057C00A
:100D7A0001F058C002F059C003F0CD0E046ECC0E3B
:100D8A00056E4C0E066E7B0E076E4FDD00C056F0E8
:100D9A0001C057F002C058F003C059F05B2ACED701
:100DAA00FF0E5614086EFF0E5714096E7F0E581464
:100DBA000A6E000E59140B6E08C004F009C005F043
:100DCA000AC006F00BC007F0043604900536063652
:100DDA000736000E5614006E000E5714016E000EF0
:100DEA005814026EFF0E5914036E00C056F001C06B
:100DFA0057F002C058F003C059F004505610006E64
:100E0A0005505710016E06505810026E07505910BF
:100E1A00036E00C056F001C057F002C058F003C07C
:100E2A0059F07F0E595C006E00C055F0010E596EE4
:100E3A0000C004F056C000F057C001F058C002F0DC
:100E4A0059C003F0045007E000360090013602361C
:100E5A000336FF0FF8D700C056F001C057F002C0A2
:100E6A0058F003C059F052C0E1FF53C0E2FF595095
:100E7A00300FE66E524A532A800E5B18006E800EBF
:100E8A00010A005C08E3800E060A006E800E5B18F9
:100E9A00005C01E30AD052C0E1FF53C0E2FF2E0E0C
:100EAA00E66E524A532A010E5A6E060E556E555078
:100EBA00000A54E0596A56C000F057C001F058C001
:100ECA0002F059C003F000360090013602360336AC
:100EDA000036009001360236033656500026575027
:100EEA000122585002225950032200C056F001C074
:100EFA0057F002C058F003C059F056C000F057C06E
:100F0A0001F058C002F059C003F0003600900136D3
:100F1A000236033600C056F001C057F002C058F03E
:100F2A0003C059F052C0E1FF53C0E2FF5950300FDD
:100F3A00E66E524A532A5A50000A0EE15B065B508B
:100F4A00000A0AE152C0E1FF53C0E2FF2E0EE66E2C
:100F5A00524A532A010E5A6E5506A9D7FF0E522439
:100F6A00E96EFF0E5320EA6EEE50300A05E1010EDB
:100F7A00525E000E535AF2D7FF0E5224E96EFF0E4C
:100F8A005320EA6EEE502E0A04E1010E525E000E64
:100F9A00535A5B50000A41E052C0E1FF53C0E2FFDE
:100FAA00650EE66E524A532A800E5B18006E800E5A
:100FBA00000A005C0BE252C0E1FF53C0E2FF2D0EB3
:100FCA00E66E524A532A5B5000085B6E5BC055F0CE
:100FDA00800E090A006E800E5B18005C0EE20A0E93
:100FEA00046E55C000F0B5DC52C0E1FF53C0E2FF09
:100FFA000050300FE66E524A532A0A0E046E55C04C
:10100A0000F0A7DC08C000F052C0E1FF53C0E2FFC5
:10101A000050300FE66E524A532A52C0E1FF53C0C5
:08102A00E2FFE66A006A120011
:101032000450000A12E10550000A0FE10650000AAE
:101042000CE10750000A09E1FF0E006EFF0E016E6F
:101052007F0E026EFF0E036EA8D0086A096A07505F
:10106200D8B4C4EF08F00350D8B4C9EF08F0025066
:1010720006180A6E028E068E0E6A02C008F001C0C1
:101082000CF000C00DF004500D5E0550D8A0053CD8
:101092000C5E0650D8A0063C085E086A0C6A0D6A0F
:1010A200D8A05BEF08F0D890023201320032083249
:1010B200010E0E6E0750035ED8A068EF08F07E0E98
:1010C2000E240326D8B0CEEF08F06EEF08F07E0EA5
:1010D2000E240326D8A0D3EF08F0180E0B6E0D369F
:1010E2000C3608360036013602360E360450005EE3
:1010F2000550D8A0053C015E0650D8A0063C025E11
:1011020006340E120EA089EF08F00D8094EF08F05D
:10111200045000260550D8B0053C01260650D8B030
:10112200062802260D900B2E70EF08F0BAEF08F099
:10113200D8900036013602360E360450005E055055
:10114200D8A0053C015E0650D8A0063C025E0634DB
:101152000E10010B0D26D8B00C2AD8B4082AD8A438
:10116200BAEF08F008320C320D32032AD8B4CEEFAF
:1011720008F00AAE089E0850026E0C50016E0D5027
:10118200006ED6EF08F0010EAAEC04F0D6EF08F0DC
:10119200020EC2EC00F0D6EF08F0040EA7EC00F04D
:0C11A200D6EF08F0080ECEEC00F01200B2
:1011AE00CD0E006ECC0E016E580E026E840E036EC6
:1011BE0044C004F045C005F046C006F047C007F035
:1011CE001AEC04F08F0E046EC20E056E610E066EE2
:0811DE00820E076E9EDC120078
:1011E600949694949498949A949C949E82968294BD
:1011F600829E829C829A8298B7EC00F0B7EC00F04F
:10120600B7EC00F0828A82888286A4EC00F082968F
:10121600B7EC00F08286A4EC00F08296B7EC00F002
:101226008286A4EC00F08296B7EC00F08298828663
:10123600A4EC00F08296B7EC00F08286A4EC00F0F5
:101246008296829A828E8286A4EC00F08296B7EC11
:1012560000F0829E82888286A4EC00F082968298B4
:101266008286A4EC00F08296B7EC00F08286A4ECAD
:1012760000F0829682888286A4EC00F08296B7EC13
:1012860000F082988286A4EC00F08296828E828C90
:10129600828A82888286A4EC00F08296B7EC00F0FF
:0412A600438012006F
:1012AA000900F5CFE6FF0006FBE10106F9E11200AD
:1012BA00C8D044C04AF045C04BF046C04CF047C0C5
:1012CA004DF0F6D00E0E046E760E056E570E066EB3
:1012DA008B0E076E44C000F045C001F046C002F014
:1012EA0047C003F0A1DE00C04AF001C04BF002C0C3
:1012FA004CF003C04DF0DCD0800E046EE60E056E95
:10130A00450E066E8F0E076E44C000F045C001F010
:10131A0046C002F047C003F087DE00C04AF001C0B1
:10132A004BF002C04CF003C04DF0C2D0000E046E68
:10133A00000E056E480E066E850E076E44C000F05C
:10134A0045C001F046C002F047C003F06DDE00C0A0
:10135A004AF001C04BF002C04CF003C04DF0A8D0D7
:10136A006F0E046E520E056E050E066E860E076E21
:10137A0044C000F045C001F046C002F047C003F087
:10138A0053DE00C04AF001C04BF002C04CF003C06B
:10139A004DF08ED0000E046E400E056E1C0E066EC9
:1013AA008C0E076E44C000F045C001F046C002F042
:1013BA0047C003F039DE00C04AF001C04BF002C05A
:1013CA004CF003C04DF074D0400E046E890E056EC9
:1013DA003F0E066E8F0E076E44C000F045C001F046
:1013EA0046C002F047C003F01FDE00C04AF001C049
:1013FA004BF002C04CF003C04DF05AD0400E046EC0
:10140A00890E056E3F0E066E8F0E076E44C000F001
:10141A0045C001F046C002F047C003F005DE00C037
:10142A004AF001C04BF002C04CF003C04DF040D06E
:10143A0044C04AF045C04BF046C04CF047C04DF09E
:10144A0037D0000E491802E1000E4818D8B431D737
:10145A00000E491802E1010E4818D8B433D7000E1D
:10146A00491802E1020E4818D8B446D7000E4918A6
:10147A0002E1030E4818D8B459D7000E491802E100
:10148A00040E4818D8B46CD7000E491802E1050EAC
:10149A004818D8B47FD7000E491802E1060E48183A
:1014AA0093E0000E491802E1070E4818A7E0C0D7DA
:1014BA004AC000F04BC001F04CC002F04DC003F02E
:0214CA0012000E
:1014CC00010E606ECCEC01F044C04EF045C04FF004
:1014DC0046C050F047C051F0330E526E000E536EA2
:1014EC000DEC06F0010E4E6E030E4F6E330E506E69
:0A14FC00000E516ECFEC05F0120057
:1015060000C008F00150006E016A026A036A0B6AA5
:101516000C6A016A026A036A960E036E0A6A00AED4
:101526009BEF0AF0081E001E082AD8B4002A0A8E6D
:1015360000C001F008C000F0086A026A93EC05F0EA
:02154600120091
:10154800CDEC0AF04CDE939093829684790EC26EAD
:10155800C00EC16EF28C9E9C9D8C830ED56E0B0EB8
:10156800D76EDC0ED66EF294F28AF18AF090F0868D
:08157800F28EC284FFD7FFD7F9
:10159A0010EE19F01A0E006E010E016E800EF66E34
:0E15AA00150EF76E000EF86E55EC09F01200EB
:02158000000069
:041582000000000065
:041586004E614E0064
:04158A00494E460080
:02158E0030002B
:02159000000059
:041592000000000055
:041596000000000051
:020000040030CA
:0D000100220F0EFF0181FF0FC00FE00F4026
:00000001FF
