:0400000096EF08F07F
:1000080000C018F001C017F00CC016F00DC015F0B4
:100018009EAC42D0C4CF01F0006AC3500026000E47
:10002800012200C02BF001C02CF03FEC08F0520E6A
:10003800046E270E056E200E066E770E076E68ECAE
:1000480004F000C027F001C028F002C029F003C066
:100058002AF000C03EF001C03FF002C040F003C0EB
:1000680041F05FEC08F000C01DF001C01EF002C0B6
:100078001FF003C020F000C03EF001C03FF002C0F6
:1000880040F003C041F07BEC08F0D58E0B0ED76E24
:10009800DC0ED66EC2909E9CF2A404D0C280C284AC
:1000A800D59EF29418C000F017C001F016C00CF0ED
:0600B80015C00DF011005F
:0600BE000000000012002A
:0800C4000AAE029E000E1200BC
:1000CC000B840BAE71EF00F0010E036E026A016A35
:0A00DC00006A0A360232FF0E12001D
:1000E6000F0E0C6E470E0D6E0D2EFED70C2EFCD786
:0600F600000000001200F2
:1000FC000B820BAE88EF00F00368026801680068A1
:08010C000A360232FF0E120058
:0A011400210E0D6E0D2EFED7120015
:0E011E00026A016A006A086A036A000E120093
:10012C000CB0D8EF00F00CA27EEF01F00E6A000EBE
:10013C000264EFEF00F0F00E0214D8A4BAEF00F056
:10014C00023A01380F0B02260138F00B016E003811
:10015C000F0B01260038F00B006E08380F0B002631
:10016C000838F00B086E0E84D89002BED3EF00F066
:10017C0008360036013602360E2A02BED3EF00F0E6
:10018C0008360036013602360E2A02BED3EF00F0D6
:10019C0008360036013602360E2A0E50036474EF10
:1001AC0001F0035E0BBC08AE79EF01F0D880800E35
:1001BC0008640030000E002201220222D8A079EF40
:1001CC0001F0023201320032034A7EEF01F079EF86
:1001DC0001F001C002F000C001F008C000F0086A94
:1001EC00000E0E86026426EF01F0F00E0214D8A465
:1001FC000EEF01F0023A01380F0B02260138F00B1A
:10020C00016E00380F0B01260038F00B006E0E84C7
:10021C00D89002BED3EF00F00036013602360E2A1B
:10022C0002BED3EF00F00036013602360E2A02BEB3
:10023C00D3EF00F00036013602360E2AD3EF00F071
:10024C0001C002F000C001F0006A000E0E960E888C
:10025C00026453EF01F0F00E0214D8A43EEF01F04B
:10026C00023A01380F0B02260138F00B016E0E8496
:10027C00D89002BED3EF00F0013602360E2A02BE31
:10028C00D3EF00F0013602360E2A02BED3EF00F097
:10029C00013602360E2AD3EF00F001C002F0016ADB
:1002AC00000E0E86026483EF01F0F00E0214D8A447
:1002BC0062EF01F0023A0E84D89002BED3EF00F048
:1002CC0002360E2A02BED3EF00F002360E2A02BE10
:1002DC00D3EF00F002360E2AD3EF00F0010E0C6EB5
:1002EC00EFDE86EF01F0020E0C6EE6DE86EF01F01B
:1002FC00040E0C6EFDDE86EF01F0080E0C6E09DFAD
:02030C001200DD
:10030E0054BE02D0829E01D0828E54BC02D0829CFA
:10031E0001D0828C54BA02D0829A01D0828A54B80B
:10032E0002D0829801D082883DB002D0828401D062
:10033E0082948286BDDE829654B602D0829E01D011
:10034E00828E54B402D0829C01D0828C54B202D0E0
:10035E00829A01D0828A54B002D0829801D08288CB
:10036E003DB002D0828401D082948286A1DE829634
:0C037E003DA002D0B1DE01D0C6DE1200AE
:10038A000A6A0350D8A40A800750D8A40A820A50DD
:10039A00D8B428EF02F0030AD8B4E1EF01F00AB0AA
:1003AA00DCEF01F006AE26EF02F024EF02F002AE17
:1003BA0024EF02F026EF02F00250800B0A6E029E32
:1003CA000650800B069E0A18D8B4F2EF01F00A50C4
:1003DA00D8B424EF02F026EF02F00750035CD8B439
:1003EA00FCEF01F0D8A018EF02F01EEF02F0065061
:1003FA00025CD8B406EF02F0D8A018EF02F01EEFA4
:10040A0002F00550015CD8B410EF02F0D8A018EF42
:10041A0002F01EEF02F00450005CD8B428EF02F09C
:10042A00D8B01EEF02F00A52D8B426EF02F024EF39
:10043A0002F00A52D8B424EF02F026EF02F0D88074
:0E044A001200D8901200D880D8841200120040
:10045800025006180E6E086A096A0B6A0350076490
:100468001FEF03F006500A6E068E028E03500B6EC5
:100478000750036E000E0B646FEF02F00B50075E1F
:10048800D8B410EF03F0070E0764DEEF02F0075E42
:1004980000C008F001C000F002C001F0026A074E77
:1004A80010EF03F00764B3EF02F0075E00C008F036
:1004B80001C000F0016A074E10EF03F0076491EFE6
:1004C80002F0075E00C008F0006A074E10EF03F064
:1004D800076478EF02F00AC002F005C001F004C01A
:1004E80000F0086A39EF04F0030E076483EF02F0A6
:1004F800075E08380F0B086E074E10EF03F0D89010
:100508000832074E10EF03F0D8900832074E10EF6C
:1005180003F0D890083210EF03F0030E0764A2EF3F
:1005280002F0075E08380F0B086E0038F00B08263B
:1005380000380F0B006E074E10EF03F0D890003212
:100548000832074E10EF03F0D89000320832074EF9
:1005580010EF03F0D8900032083210EF03F0030ECA
:100568000764CAEF02F0075E08380F0B086E003800
:10057800F00B082600380F0B006E0138F00B002630
:1005880001380F0B016E074E10EF03F0D8900132BF
:1005980000320832074E10EF03F0D89001320032D3
:1005A8000832074E10EF03F0D890013200320832BB
:1005B80010EF03F0030E0764FBEF02F0075E083844
:1005C8000F0B086E0038F00B082600380F0B006E72
:1005D8000138F00B002601380F0B016E0238F00BC2
:1005E800012602380F0B026E074E10EF03F0D89069
:1005F8000232013200320832074E10EF03F0D89071
:100608000232013200320832074E10EF03F0D89060
:100618000232013200320832096A000E0EAE04EFCF
:1006280004F0081E001E011E021E082A00220122D4
:10063800022204EF04F00750D8A425EF03F039EFA5
:1006480004F0096A02C00AF0028E068E0750035CA5
:10065800076ED8B4F7EF03F0070E0764C5EF03F091
:10066800075E0450096E0550046E0650056E066A52
:10067800074EF7EF03F0070E07649AEF03F0075EE3
:100688000450096E0550046E056A074EF7EF03F033
:10069800070E076478EF03F0075E0450096E046ADA
:1006A800074EF7EF03F0070E07645FEF03F00AC089
:1006B80002F039EF04F0030E07646AEF03F0075EF7
:1006C80009380F0B096E074EF7EF03F0D89009327F
:1006D800074EF7EF03F0D8900932074EF7EF03F013
:1006E800D8900932F7EF03F0030E076489EF03F09F
:1006F800075E09380F0B096E0438F00B0926043819
:100708000F0B046E074EF7EF03F0D890043209324E
:10071800074EF7EF03F0D89004320932074EF7EF8F
:1007280003F0D89004320932F7EF03F0030E0764A0
:10073800B1EF03F0075E09380F0B096E0438F00BB0
:10074800092604380F0B046E0538F00B042605380B
:100758000F0B056E074EF7EF03F0D8900532043201
:100768000932074EF7EF03F0D89005320432093208
:10077800074EF7EF03F0D890053204320932F7EF4D
:1007880003F0030E0764E2EF03F0075E09380F0B6E
:10079800096E0438F00B092604380F0B046E05386F
:1007A800F00B042605380F0B056E0638F00B0526EE
:1007B80006380F0B066E074EF7EF03F0D890063297
:1007C800053204320932074EF7EF03F0D8900632AB
:1007D800053204320932074EF7EF03F0D89006329B
:1007E800053204320932086A000E0EAE04EF04F036
:1007F800091E041E051E061E092A042205220622B9
:1008080009500826045000220550012206500222F1
:100818000EBE1BEF04F0D8A02AEF04F0023201321A
:1008280000320832033E2AEF04F034EF04F0D8B067
:100838002FEF04F0000E081E001E011E021E082ADB
:100848000022012202220A7E2FEF04F0010E0C6E14
:1008580069DC3BEF04F0020E0C6E64DC3BEF04F045
:10086800040E0C6E47DC3BEF04F0000E0C6E120019
:0C0878003D9050C054F047DD3D80120060
:1008840050C004F051C005F004C002F005C003F0EC
:10089400044A052A52C000F053C001F0524A532AB8
:1008A40000C0E9FF01C0EAFF02C0E1FF03C0E2FFAC
:1008B400EECFE6FF02C0E9FF03C0EAFFEE5201E01B
:0C08C400E3D750C000F051C001F012005A
:1008D000086A096A000E07620364EDEF04F0025033
:1008E00006180A6E075003267E0ED8A07EEF04F08D
:1008F000035ED8B0F2EF04F082EF04F0035ED8A0FC
:10090000F7EF04F0028E068E02C00EF001C00BF06D
:1009100000C00DF000500402F4CF0CF001500502AD
:10092000F4CF00F0F3CF08F00402F3500C26F4509B
:100930000822000E00220D500502F3500C26F45040
:100940000822000E002202500402F3500826F45040
:10095000002202500502016A000E0122F350002617
:10096000F45001220D500602F3500826F4500022E4
:10097000026A000E012202220B500602F3500026EA
:10098000F4500122000E02220E500602F3500126FE
:10099000F450022202BED5EF04F0083600360136CC
:1009A00002360306D8B4F7EF04F0E8EF04F0D8807D
:1009B000800E08640030000E002201220222D8A01E
:1009C000E8EF04F0023201320032034AF2EF04F0A1
:1009D0000AAE029E000EFAEF04F0010E8FEC00F05A
:1009E000FAEF04F0020E7EEC00F0FAEF04F0040ED1
:0609F00066EC00F01200AD
:1009F6000D6A086A0050D8B4000C04180A6E0ABEC4
:100A06000D1E0B6A04AE02D0041E042A00AE02D0EC
:100A1600001E002A005004100A6E0ABE1FD00450A1
:100A2600085E003600340836045008260036060EE6
:100A36000C6E00340836045000B0085E00A008268C
:100A460000360C2EF6D700A008260BB015D00DAE3A
:100A5600000C001E002A081E082A000C04AE09D04D
:100A660000BE04D00050086E006AF1D7006A002A62
:100A7600000C001E0B2AD3D7082A0450085CD8A401
:0E0A8600E6D7086A002A00AEE2D7FF0C120085
:060A9400067EE0DC12000A
:100A9A000C6A0E6A0250D8A466EF05F001C002F093
:100AAA0000C001F0006A0E860250D8A466EF05F075
:100ABA0001C002F0016A0E960E880250D8B478EF8F
:100ACA0005F00E50035ED8A4D8A07EEF05F0D890AA
:100ADA0002BE84EF05F0003601360236032E6DEFB2
:100AEA0005F07EEF05F0010E0C6E8FEC00F088EF3A
:100AFA0005F0020E0C6E66EC00F088EF05F0040EAD
:080B0A000C6E62EC00F0120019
:100B12000FD0800E426E19D0C00E426E16D0940EC7
:100B2200426E13D0D40E426E10D0800E426E0DD0A3
:100B32004250010AEEE04250020AEEE04250030A3D
:100B4200EEE04250040AEEE0F0D74304006E425059
:100B5200002600C042F000C054F087EC01F03D9046
:100B6200466A46504424E96E000E4520EA6EEE5273
:100B72000BE046504424E96E000E4520EA6EEECFAB
:0C0B820050F079DE462AEDD73D801200CD
:100B8E004E6A4F6A42C04AF043C04BF044C04CF02C
:100B9E0045C04DF04D50FF0A08E14C50FF0A05E1EB
:100BAE004B50FF0A02E14A50FF0A0CE146C050F0DA
:100BBE0047C051F0190E526E000E536E5CDE030EDE
:100BCE00006EEBD1010E486E4CAE0ED0800E4C185E
:100BDE00006E00C04CF0482A46C0E1FF47C0E2FF5D
:100BEE002D0EE66E464A472A000E006E4D1808E19D
:100BFE0000504C1805E100504B1802E14A50000A13
:100C0E000BE146C050F047C051F0250E526E000E5B
:100C1E00536E31DE006AC1D14D50FF0A08E14C50CF
:100C2E00000A05E14B50000A02E14A50000A0CE1AD
:100C3E0046C050F047C051F0210E526E000E536E5A
:100C4E001ADE48C000F0A9D1000E046E000E056E2B
:100C5E00000E066E7F0E076E4AC000F04BC001F00C
:100C6E004CC002F04DC003F0C5EC01F0010ED8B03F
:100C7E00000E006E00521BE04AC000F04BC001F0A7
:100C8E004CC002F04DC003F0000E046E000E056E57
:100C9E00200E066E820E076E14DE00C04AF001C0F2
:100CAE004BF002C04CF003C04DF04F06CDD7000EF6
:100CBE00046E000E056E200E066E820E076E4AC082
:100CCE0000F04BC001F04CC002F04DC003F0C5EC7B
:100CDE0001F0000ED8B0010E006E00521BE04AC0AB
:100CEE0000F04BC001F04CC002F04DC003F0CD0E31
:100CFE00046ECC0E056E4C0E066E7B0E076EE1DD9D
:100D0E0000C04AF001C04BF002C04CF003C04DF0E1
:100D1E004F2ACDD7FF0E4A14086EFF0E4B14096EE4
:100D2E007F0E4C140A6E000E4D140B6E08C004F0AC
:100D3E0009C005F00AC006F00BC007F00436049097
:100D4E00053606360736000E4A14006E000E4B149A
:100D5E00016E000E4C14026EFF0E4D14036E00C099
:100D6E004AF001C04BF002C04CF003C04DF00450ED
:100D7E004A10006E05504B10016E06504C10026E5C
:100D8E0007504D10036E00C04AF001C04BF002C078
:100D9E004CF003C04DF07F0E4D5C006E00C049F06C
:100DAE00010E4D6E00C004F04AC000F04BC001F0C1
:100DBE004CC002F04DC003F0045007E00036009026
:100DCE00013602360336FF0FF8D700C04AF001C0D5
:100DDE004BF002C04CF003C04DF046C0E1FF47C0DF
:100DEE00E2FF4D50300FE66E464A472A800E4F18EE
:100DFE00006E800E010A005C08E3800E060A006E8B
:100E0E00800E4F18005C01E30AD046C0E1FF47C0D8
:100E1E00E2FF2E0EE66E464A472A010E4E6E060E73
:100E2E00496E4950000A54E04D6A4AC000F04BC06A
:100E3E0001F04CC002F04DC003F0003600900136B8
:100E4E0002360336003600900136023603364A501B
:100E5E0000264B5001224C5002224D50032200C05E
:100E6E004AF001C04BF002C04CF003C04DF04AC036
:100E7E0000F04BC001F04CC002F04DC003F0003644
:100E8E00009001360236033600C04AF001C04BF026
:100E9E0002C04CF003C04DF046C0E1FF47C0E2FF78
:100EAE004D50300FE66E464A472A4E50000A0EE16C
:100EBE004F064F50000A0AE146C0E1FF47C0E2FF6D
:100ECE002E0EE66E464A472A010E4E6E4906A9D7E9
:100EDE00FF0E4624E96EFF0E4720EA6EEE50300AF2
:100EEE0005E1010E465E000E475AF2D7FF0E46246C
:100EFE00E96EFF0E4720EA6EEE502E0A04E1010E57
:100F0E00465E000E475A4F50000A41E046C0E1FFD0
:100F1E0047C0E2FF650EE66E464A472A800E4F181E
:100F2E00006E800E000A005C0BE246C0E1FF47C077
:100F3E00E2FF2D0EE66E464A472A4F5000084F6ECE
:100F4E004FC049F0800E090A006E800E4F18005CEB
:100F5E000EE20A0E046E49C000F046DD46C0E1FF07
:100F6E0047C0E2FF0050300FE66E464A472A0A0E8F
:100F7E00046E49C000F038DD08C000F046C0E1FF45
:100F8E0047C0E2FF0050300FE66E464A472A46C081
:0C0F9E00E1FF47C0E2FFE66A006A1200B3
:100FAA00949694949498949A949C949E82968294FB
:100FBA00829E829C829A829873EC00F073EC00F015
:100FCA0073EC00F0828A828882865FEC00F0829657
:100FDA0073EC00F082865FEC00F0829673EC00F00E
:100FEA0082865FEC00F0829673EC00F0829882862B
:100FFA005FEC00F0829673EC00F082865FEC00F002
:10100A008296829A828E82865FEC00F0829673ECD8
:10101A0000F0829E828882865FEC00F08296829837
:10102A0082865FEC00F0829673EC00F082865FECB9
:10103A0000F08296828882865FEC00F0829673ECDA
:10104A0000F0829882865FEC00F08296828E828C13
:10105A00828A828882865FEC00F0829673EC00F0C6
:04106A003D801200B3
:10106E000900F5CFE6FF0006FBE10106F9E11200EB
:10107E0000C008F00150006E016A026A036A0B6A32
:10108E000C6A016A026A036A960E036E0A6A00AE61
:10109E0057EF08F0081E001E082AD8B4002A0A8E40
:1010AE0000C001F008C000F0086A026AEFDC12000E
:1010BE00CD0E006ECC0E016E580E026E840E036EB7
:1010CE003EC004F03FC005F040C006F041C007F03E
:1010DE0068EC04F08F0E046EC20E056E610E066E85
:0810EE00820E076ED0DC120037
:1010F600010E546E87EC01F03EC042F03FC043F053
:1011060040C044F041C045F02D0E466E000E476EBD
:101116003BDD010E426E030E436E2D0E446E000E35
:06112600456EF4DC12002E
:10112C00B9EC08F03CDF939093829684790EC26EF2
:10113C00C00EC16EF28C9E9C9D8C830ED56E0B0ED8
:10114C00D76EDC0ED66EF294F28AF28EC284FFD782
:02115C00FFD7BB
:1011720010EE19F0140E006E010E016E5E0EF66E88
:0E118200110EF76E000EF86E37EC08F012003A
:04115E004E614E0090
:041162000000000089
:04116600494E4600A8
:02116A00300053
:04116C00000000007F
:0211700000007D
:020000040030CA
:0D000100220F0EFF0181FF0FC00FE00F4026
:00000001FF
