:0400000014EF09F000
:1000080000C018F001C017F00CC016F00DC015F0B4
:100018009EACA1D0C3CF21F0000E226EC4CF01F058
:10002800006A215000262250012200C021F001C0A0
:1000380022F008EC07F029C004F02AC005F02BC014
:1000480006F02CC007F092EC07F0000E046E000ECC
:10005800056E480E066E850E076E92EC07F0000ED0
:10006800046E000E056E480E066E840E076ECDEC0B
:1000780005F000C01DF001C01EF002C01FF003C053
:1000880020F0000E281802E1000E271809E11DC013
:100098002DF01EC02EF01FC02FF020C030F043D02E
:1000A800000E281802E1010E271824E1660E006EE2
:1000B800660E016E660E026E7F0E036E1DC004F0A2
:1000C8001EC005F01FC006F020C007F092EC07F034
:1000D800000E046E000E056E000E066E840E076E8E
:1000E80057DA00C02DF001C02EF002C02FF003C077
:1000F80030F019D01DC000F01EC001F01FC002F082
:1001080020C003F0330E046E930E056E080E066EC3
:10011800870E076E3DDA00C02DF001C02EF002C038
:100128002FF003C030F02DC042F02EC043F02FC096
:1001380044F030C045F077EC08F000C025F001C06D
:1001480026F025EC08F0C290C2949E9CD58E6D0EC8
:10015800D76E840ED66EF2A404D0D59EF294C280D7
:10016800C284F2A277D0010E2724006E000E282048
:10017800016E030E046E000E056EB1EC08F008C0A7
:1001880000F009C001F000C027F001C028F0000EFF
:10019800011802E1000E001809E11DC02DF01EC073
:1001A8002EF01FC02FF020C030F043D0000E2818CA
:1001B80002E1010E271824E1660E006E660E016E3C
:1001C800660E026E7F0E036E1DC004F01EC005F0A1
:1001D8001FC006F020C007F092EC07F0000E046E76
:1001E800000E056E000E066E840E076ED1D900C093
:1001F8002DF001C02EF002C02FF003C030F019D04E
:100208001DC000F01EC001F01FC002F020C003F0A6
:10021800330E046E930E056E080E066E870E076E7B
:10022800B7D900C02DF001C02EF002C02FF003C0D6
:1002380030F02DC042F02EC043F02FC044F030C043
:1002480045F077EC08F000C025F001C026F025EC59
:1002580008F0F29218C000F017C001F016C00CF0B8
:0602680015C00DF01100AD
:06026E0000000000120078
:100274000B820BAE44EF01F003680268016800686A
:080284000A360232FF0E1200DF
:0E028C00026A016A006A086A036A000E120024
:10029A000F0E0C6E470E0D6E0D2EFED70C2EFCD7D0
:0602AA000000000012003C
:0802B0000AAE029E000E1200CE
:0A02B800210E0D6E0D2EFED7120070
:1002C2000B840BAE6CEF01F0010E036E026A016A41
:0A02D200006A0A360232FF0E120025
:1002DC000CB0B0EF01F00CA256EF02F00E6A000E5B
:1002EC000264C7EF01F0F00E0214D8A492EF01F0F3
:1002FC00023A01380F0B02260138F00B016E003860
:10030C000F0B01260038F00B006E08380F0B00267F
:10031C000838F00B086E0E84D89002BEABEF01F0DB
:10032C0008360036013602360E2A02BEABEF01F05B
:10033C0008360036013602360E2A02BEABEF01F04B
:10034C0008360036013602360E2A0E5003644CEF86
:10035C0002F0035E0BBC08AE51EF02F0D880800EA9
:10036C0008640030000E002201220222D8A051EFB6
:10037C0002F0023201320032034A56EF02F051EF22
:10038C0002F001C002F000C001F008C000F0086AE1
:10039C00000E0E860264FEEF01F0F00E0214D8A4DB
:1003AC00E6EF01F0023A01380F0B02260138F00B90
:1003BC00016E00380F0B01260038F00B006E0E8416
:1003CC00D89002BEABEF01F00036013602360E2A91
:1003DC0002BEABEF01F00036013602360E2A02BE29
:1003EC00ABEF01F00036013602360E2AABEF01F00E
:1003FC0001C002F000C001F0006A000E0E960E88DB
:10040C0002642BEF02F0F00E0214D8A416EF02F0E7
:10041C00023A01380F0B02260138F00B016E0E84E4
:10042C00D89002BEABEF01F0013602360E2A02BEA6
:10043C00ABEF01F0013602360E2A02BEABEF01F033
:10044C00013602360E2AABEF01F001C002F0016A50
:10045C00000E0E8602645BEF02F0F00E0214D8A4BC
:10046C003AEF02F0023A0E84D89002BEABEF01F0E4
:10047C0002360E2A02BEABEF01F002360E2A02BE85
:10048C00ABEF01F002360E2AABEF01F0010E0C6E51
:10049C0012DF5EEF02F0020E0C6E04DF5EEF02F074
:1004AC00040E0C6EE1DE5EEF02F0080E0C6EE8DE60
:0204BC0012002C
:1004BE00086A096A100E0C6E0134083609360450AB
:1004CE00085E0550D8A0053C095ED8B007D0045090
:1004DE0008260550D8B0053C0926D89000360136BE
:0604EE000C2EEAD71200FB
:1004F40057BE02D0839E01D0838E57BC02D0839C0A
:1005040001D0838C57BA02D0839A01D0838A57B81A
:1005140002D0839801D0838831B002D0838401D083
:1005240083948386A2DE839657B602D0839E01D03D
:10053400838E57B402D0839C01D0838C57B202D0EF
:10054400839A01D0838A57B002D0839801D08388DC
:1005540031B002D0838401D08394838686DE83966F
:0C05640031A002D098DE01D0A5DE12000C
:0C057000319050C057F0BEDF3180120007
:10057C000B800BAECAEF02F0026A0AAEFF0E026EDF
:0C058C00016E006E0A360232FF0E1200F3
:10059800025006180E6E086A096A0B6A035007644F
:1005A800BFEF03F006500A6E068E028E03500B6EE4
:1005B8000750036E000E0B640FEF03F00B50075E3D
:1005C800D8B4B0EF03F0070E07647EEF03F0075EC0
:1005D80000C008F001C000F002C001F0026A074E36
:1005E800B0EF03F0076453EF03F0075E00C008F0B4
:1005F80001C000F0016A074EB0EF03F0076431EF65
:1006080003F0075E00C008F0006A074EB0EF03F081
:10061800076418EF03F00AC002F005C001F004C037
:1006280000F0086AD9EF04F0030E076423EF03F023
:10063800075E08380F0B086E074EB0EF03F0D8902E
:100648000832074EB0EF03F0D8900832074EB0EFEB
:1006580003F0D8900832B0EF03F0030E076442EFBE
:1006680003F0075E08380F0B086E0038F00B0826F9
:1006780000380F0B006E074EB0EF03F0D890003231
:100688000832074EB0EF03F0D89000320832074E18
:10069800B0EF03F0D89000320832B0EF03F0030E49
:1006A80007646AEF03F0075E08380F0B086E00381E
:1006B800F00B082600380F0B006E0138F00B0026EF
:1006C80001380F0B016E074EB0EF03F0D8900132DE
:1006D80000320832074EB0EF03F0D89001320032F2
:1006E8000832074EB0EF03F0D890013200320832DA
:1006F800B0EF03F0030E07649BEF03F0075E0838C2
:100708000F0B086E0038F00B082600380F0B006E30
:100718000138F00B002601380F0B016E0238F00B80
:10072800012602380F0B026E074EB0EF03F0D89087
:100738000232013200320832074EB0EF03F0D8908F
:100748000232013200320832074EB0EF03F0D8907F
:100758000232013200320832096A000E0EAEA4EFEE
:1007680004F0081E001E011E021E082A0022012293
:100778000222A4EF04F00750D8A4C5EF03F0D9EF84
:1007880004F0096A02C00AF0028E068E0750035C64
:10079800076ED8B497EF04F0070E076465EF04F00E
:1007A800075E0450096E0550046E0650056E066A11
:1007B800074E97EF04F0070E07643AEF04F0075E60
:1007C8000450096E0550046E056A074E97EF04F051
:1007D800070E076418EF04F0075E0450096E046AF8
:1007E800074E97EF04F0070E0764FFEF03F00AC007
:1007F80002F0D9EF04F0030E07640AEF04F0075E75
:1008080009380F0B096E074E97EF04F0D89009329C
:10081800074E97EF04F0D8900932074E97EF04F08F
:10082800D890093297EF04F0030E076429EF04F01B
:10083800075E09380F0B096E0438F00B09260438D7
:100848000F0B046E074E97EF04F0D890043209326C
:10085800074E97EF04F0D89004320932074E97EF0D
:1008680004F0D8900432093297EF04F0030E0764BD
:1008780051EF04F0075E09380F0B096E0438F00BCE
:10088800092604380F0B046E0538F00B04260538CA
:100898000F0B056E074E97EF04F0D890053204321F
:1008A8000932074E97EF04F0D89005320432093226
:1008B800074E97EF04F0D89005320432093297EFCB
:1008C80004F0030E076482EF04F0075E09380F0B8B
:1008D800096E0438F00B092604380F0B046E05382E
:1008E800F00B042605380F0B056E0638F00B0526AD
:1008F80006380F0B066E074E97EF04F0D8900632B5
:10090800053204320932074E97EF04F0D8900632C8
:10091800053204320932074E97EF04F0D8900632B8
:10092800053204320932086A000E0EAEA4EF04F054
:10093800091E041E051E061E092A04220522062277
:1009480009500826045000220550012206500222B0
:100958000EBEBBEF04F0D8A0CAEF04F00232013299
:1009680000320832033ECAEF04F0D4EF04F0D8B0E6
:10097800CFEF04F0000E081E001E011E021E082AFA
:100988000022012202220A7ECFEF04F0010E0C6E33
:10099800A1DCDBEF04F0020E0C6E9CDCDBEF04F054
:1009A800040E0C6E63DCDBEF04F0000E0C6E12001C
:1009B800546A050E545C0AE254505224E16E000E4B
:1009C8005320E26E200EE66E542AF3D75450522478
:1009D800E16E000E5320E26EE66A5406545052242B
:1009E800556E000E5320566E0A0E046E000E056EEC
:1009F80050C000F051C001F05EDD08C000F009C031
:100A080001F0300E002655C0E1FF56C0E2FF00C0DD
:100A1800E6FF0A0E046E000E056E50C000F051C0CD
:100A280001F049DD00C050F001C051F0000E01187E
:100A380002E1000E001801E102D05406CFD71200DF
:100A48000FD0800E466E19D0C00E466E16D0940E8A
:100A5800466E13D0D40E466E10D0800E466E0DD062
:100A68004650010AEEE04650020AEEE04650030AFC
:100A7800EEE04650040AEEE0F0D74704006E465018
:100A8800002600C046F000C057F030DD31904A6AB9
:100A98004A504824E96E000E4920EA6EEE520BE0F7
:100AA8004A504824E96E000E4920EA6EEECF50F015
:0A0AB8005BDD4A2AEDD73180120001
:100AC2004C6A4D6A46C04EF047C04FF0800E471840
:100AD200006E800E005C02E1000E465C0BE2010E2D
:100AE2004C6E000E4D6E465000084E6E47C04FF0E1
:100AF200000E4F564EC050F04FC051F048C052F059
:100B020049C053F058DF060E4A6E000E4B6E000EBF
:100B1200006E4B50005C02E14A50000819E24A5054
:100B22004824E16E4B504920E26E010E4A5C006E91
:100B3200000E4B58016E00504824E96E01504920C6
:100B4200EA6EEECFE6FF010E4A5E000E4B5ADFD789
:100B520048C0E1FF49C0E2FF200EE66E4C504D1046
:100B62001AE04A6A4B6A4A504824E96E4B504920BF
:100B7200EA6EEE50200A03E14A4A4B2AF4D7010EEC
:100B82004A5E000E4B5A4A504824E16E4B504920AF
:080B9200E26E2D0EE66E12006A
:060B9A00067EFDDC1200E6
:100BA0000B6A0350D8B416EF06F002500A6E028E9C
:100BB0008E0E035E03AE1AEF06F0036C080E035CA4
:100BC000D8A0F5EF05F0036E013602C001F0026A0D
:100BD000080E035CD8A0F5EF05F0036E0136016A3C
:100BE0000350D8A4D890FFEF05F00350D8B4FFEF1E
:100BF00005F0D89002320132032EF9EF05F00BBC5C
:100C000001A00CEF06F0D8A00CEF06F0012AD8B432
:100C1000022A02BE29EF06F00AAE2EEF06F0021EEF
:100C2000011E012AD8B4022A2EEF06F0026A016AD8
:100C30002EEF06F00B800BAE32EF06F0026A0AAE22
:100C400032EF06F0FF0E026E016E0A36023232EF0C
:100C500006F0010E0C6E92DC34EF06F0000E0C6E06
:100C600034EF06F0FF0E0C6E0150006E0250016E64
:020C7000120070
:100C72000C6A0E6A0250D8A452EF06F001C002F0CC
:100C820000C001F0006A0E860250D8A452EF06F0AE
:100C920001C002F0016A0E960E880250D8B464EFC9
:100CA20006F00E50035ED8A4D8A06AEF06F0D890E2
:100CB20002BE70EF06F0003601360236032E59EFFF
:100CC20006F06AEF06F0010E0C6E46EC01F074EFCE
:100CD20006F0020E0C6E61EC01F074EF06F0040EE9
:080CE2000C6E58EC01F0120049
:100CEA000134083609360450085E0550D8A0053C80
:100CFA00095E003601360F0E0C6E013408360936CD
:100D0A00045000A006D0085E0550D8A0053C095E34
:100D1A0005D008260550D8B0053C0926003601360C
:100D2A000C2EEBD700B006D0045008260550D8B0D8
:080D3A00053C0926000012002F
:100D42000A6A0350D8A40A800750D8A40A820A501B
:100D5200D8B404EF07F0030AD8B4BDEF06F00AB026
:100D6200B8EF06F006AE02EF07F000EF07F002AEB2
:100D720000EF07F002EF07F00250800B0A6E029EAE
:100D82000650800B069E0A18D8B4CEEF06F00A5021
:100D9200D8B400EF07F002EF07F00750035CD8B4B5
:100DA200D8EF06F0D8A0F4EF06F0FAEF06F00650FE
:100DB200025CD8B4E2EF06F0D8A0F4EF06F0FAEF46
:100DC20006F00550015CD8B4ECEF06F0D8A0F4EFC1
:100DD20006F0FAEF06F00450005CD8B404EF07F016
:100DE200D8B0FAEF06F00A52D8B402EF07F000EFDB
:100DF20007F00A52D8B400EF07F002EF07F0D880EC
:0E0E02001200D8901200D880D884120012007E
:100E100000C008F00150006E016A026A036A0B6AA2
:100E20000C6A016A026A036A960E036E0A6A00AED1
:100E300020EF07F0081E001E082AD8B4002A0A8EE8
:100E400000C001F008C000F0086A026A12DF120058
:100E5000959695949598959A959C959E839683944E
:100E6000839E839C839A83984DEC01F04DEC01F0B6
:100E70004DEC01F0838A8388838637EC01F08396FA
:100E80004DEC01F0838637EC01F083964DEC01F0D8
:100E9000838637EC01F083964DEC01F083988386CE
:100EA00037EC01F083964DEC01F0838637EC01F0CE
:100EB0008396839A838E838637EC01F083964DEC7C
:100EC00001F0839E8388838637EC01F083968398B4
:100ED000838637EC01F083964DEC01F0838637EC86
:100EE00001F083968388838637EC01F083964DEC7E
:100EF00001F08398838637EC01F08396838E838C90
:100F0000838A8388838637EC01F083964DEC01F069
:040F1000318012001A
:100F14000900F5CFE6FF0006FBE10106F9E1120046
:100F2400086A096A000E0762036417EF08F00250AA
:100F340006180A6E075003267E0ED8A0A8EF07F005
:100F4400035ED8B01CEF08F0ACEF07F0035ED8A046
:100F540021EF08F0028E068E02C00EF001C00BF0E5
:100F640000C00DF000500402F4CF0CF00150050253
:100F7400F4CF00F0F3CF08F00402F3500C26F45041
:100F84000822000E00220D500502F3500C26F450E6
:100F94000822000E002202500402F3500826F450E6
:100FA400002202500502016A000E0122F3500026BD
:100FB400F45001220D500602F3500826F45000228A
:100FC400026A000E012202220B500602F350002690
:100FD400F4500122000E02220E500602F3500126A4
:100FE400F450022202BEFFEF07F008360036013645
:100FF40002360306D8B421EF08F012EF08F0D880C7
:10100400800E08640030000E002201220222D8A0C3
:1010140012EF08F0023201320032034A1CEF08F0EA
:101024000AAE029E000E24EF08F0010E46EC01F019
:1010340024EF08F0020E3AEC01F024EF08F0040E5D
:0610440061EC01F0120056
:10104A00010E576E7AEC02F025C046F026C047F032
:10105A00320E486E000E496E2FDD000E281802E18E
:10106A00000E271813E1010E466E010E476E320E6E
:10107A00486E000E496EE3DC010E466E070E476E9F
:10108A00230E486E000E496EDADC2BD0000E2818AB
:10109A0002E1010E271813E1010E466E010E476E9A
:1010AA00320E486E000E496ECADC010E466E070EFD
:1010BA00476E1B0E486E000E496EC1DC12D0010E3F
:1010CA00466E010E476E320E486E000E496EB7DC50
:1010DA00010E466E070E476E190E486E000E496ED7
:0410EA00AEDC120066
:1010EE00046A056A066A076A42C000F043C001F04E
:1010FE0044C002F045C003F01DDE000ED8B0010E54
:10110E00006E005214E042C000F043C001F044C033
:10111E0002F045C003F0000E046E000E056E000EC8
:10112E00066E7E0E076ECCEC02F033DD12D0000E92
:10113E00046E000E056E000E066E7E0E076E42C029
:10114E0000F043C001F044C002F045C003F01EDDC4
:04115E0020DD12007E
:101162000450000A08E10550000A05E1FF0E006E76
:101172007F0E016E57D00D6A096A086A015000108D
:10118200D8B4000C015005180A6E0ABE0D1E0B6A77
:1011920005AE05D0041E051E042AD8B4052A01AEE8
:1011A20005D0001E011E002AD8B4012A01500510E4
:1011B2000A6E0ABE10D098DD0BB020D00DAE000C26
:1011C200001E011E002AD8B4012A081E091E082A80
:1011D200D8B4092A000C05AE0DD001BE07D00150CB
:1011E200096E0050086E016A006AE8D7016A006A57
:1011F200002A000C011E001E0B2ADDD7082AD8B4D3
:10120200092A0450085CD8A4D9D70550095CD8A48F
:10121200D5D7096A086A002AD8B4012A01AECED706
:061222000000FF0C1200A9
:1012280037EC09F011DE590EC26EC00EC16E9286FF
:101238009380850ED56EF294F28AF18CF292F28840
:0E1248009E9C9D8CF28CF28EC284FFD7FFD745
:10126E0010EE19F0180E006E010E016E560EF66E8F
:0E127E00120EF76E000EF86E8AEC07F01200EA
:021256004B004B
:0212580046004E
:04125A000000000090
:02125E0000008E
:02126000430049
:0212620000008A
:02126400000088
:041266005227207774
:04126A000000000080
:020000040030CA
:0D000100220F0EFF0181FF0FC00FE00F4026
:00000001FF
