:1000000016EF00F00000000000EF00F0000000001C
:0A0010000000000000000000F3D71C
:10001C000900F5CFE6FF0006FBE10106F9E112004D
:10002C00A60EF66E000EF76E000EF86E150EE16E53
:10003C00000EE26E140E006E010E016EE9DF070E6B
:10004C00C16E946A27C000F028C001F00036009001
:10005C000136150E0024E96E000E0120EA6EEECF7B
:10006C0082FF020E0B6E040E0C6EBA0E0D6E0D2E70
:10007C00FED70C2EFCD70B2EFAD70000274A282AC5
:10008C00800E006E800E2818005C02E127500808D4
:0A009C0002E2276A286AD6D7FFD7D0
:1000A6000100030007000F001F003F007F00FF0054
:0200B600000048
:0200B800000046
:020000040030CA
:0D000100220F0EFF0181FF0FC00FE00F4026
:00000001FF
